{"contracts/verifier.sol":{"Verifier":{"abi":[{"inputs":[{"internalType":"uint256[2]","name":"a","type":"uint256[2]"},{"internalType":"uint256[2][2]","name":"b","type":"uint256[2][2]"},{"internalType":"uint256[2]","name":"c","type":"uint256[2]"},{"internalType":"uint256[68]","name":"input","type":"uint256[68]"}],"name":"verifyProof","outputs":[{"internalType":"bool","name":"r","type":"bool"}],"stateMutability":"view","type":"function"}],"evm":{"bytecode":{"linkReferences":{},"object":"608060405234801561001057600080fd5b5061306b806100206000396000f3fe608060405234801561001057600080fd5b506004361061002b5760003560e01c80633420a29614610030575b600080fd5b610190600480360361098081101561004757600080fd5b8101908080604001906002806020026040519081016040528092919082600260200280828437600081840152601f19601f82011690508083019250505050505091929192908060800190600280602002604051908101604052809291906000905b828210156100fc578382604002016002806020026040519081016040528092919082600260200280828437600081840152601f19601f820116905080830192505050505050815260200190600101906100a8565b50505050919291929080604001906002806020026040519081016040528092919082600260200280828437600081840152601f19601f82011690508083019250505050505091929192908061088001906044806020026040519081016040528092919082604460200280828437600081840152601f19601f82011690508083019250505050505091929192905050506101aa565b604051808215151515815260200191505060405180910390f35b60006101b4612ef3565b6040518060400160405280876000600281106101cc57fe5b60200201518152602001876001600281106101e357fe5b60200201518152508160000181905250604051806040016040528060405180604001604052808860006002811061021657fe5b602002015160006002811061022757fe5b602002015181526020018860006002811061023e57fe5b602002015160016002811061024f57fe5b6020020151815250815260200160405180604001604052808860016002811061027457fe5b602002015160006002811061028557fe5b602002015181526020018860016002811061029c57fe5b60200201516001600281106102ad57fe5b602002015181525081525081602001819052506040518060400160405280856000600281106102d857fe5b60200201518152602001856001600281106102ef57fe5b602002015181525081604001819052506060604467ffffffffffffffff8111801561031957600080fd5b506040519080825280602002602001820160405280156103485781602001602082028036833780820191505090505b50905060008090505b60448110156103905784816044811061036657fe5b602002015182828151811061037757fe5b6020026020010181815250508080600101915050610351565b50600061039d82846103bd565b14156103ae576001925050506103b5565b6000925050505b949350505050565b6000807f30644e72e131a029b85045b68181585d2833e84879b9709143e1f593f000000190506103eb612f26565b6103f36105f1565b9050806080015151600186510114610473576040517f08c379a00000000000000000000000000000000000000000000000000000000081526004018080602001828103825260128152602001807f76657269666965722d6261642d696e707574000000000000000000000000000081525060200191505060405180910390fd5b61047b612f6d565b6040518060400160405280600081526020016000815250905060008090505b865181101561057a57838782815181106104b057fe5b60200260200101511061052b576040517f08c379a000000000000000000000000000000000000000000000000000000000815260040180806020018281038252601f8152602001807f76657269666965722d6774652d736e61726b2d7363616c61722d6669656c640081525060200191505060405180910390fd5b61056b826105668560800151600185018151811061054557fe5b60200260200101518a858151811061055957fe5b6020026020010151612776565b612871565b9150808060010191505061049a565b5061059d81836080015160008151811061059057fe5b6020026020010151612871565b90506105d36105af866000015161298b565b8660200151846000015185602001518587604001518b604001518960600151612a25565b6105e357600193505050506105eb565b600093505050505b92915050565b6105f9612f26565b60405180604001604052807f2d4d9aa7e302d9df41749d5507949d05dbea33fbb16c643b22f599a2be6df2e281526020017f14bedd503c37ceb061d8ec60209fe345ce89830a19230301f076caff004d19268152508160000181905250604051806040016040528060405180604001604052807f0967032fcbf776d1afc985f88877f182d38480a653f2decaa9794cbc3bf3060c81526020017f0e187847ad4c798374d0d6732bf501847dd68bc0e071241e0213bc7fc13db7ab815250815260200160405180604001604052807f304cfbd1e08a704a99f5e847d93f8c3caafddec46b7a0d379da69a4d112346a781526020017f1739c1b1a457a8c7313123d24d2f9192f896b7c63eea05a9d57f06547ad0cec88152508152508160200181905250604051806040016040528060405180604001604052807f198e9393920d483a7260bfb731fb5d25f1aa493335a9e71297e485b7aef312c281526020017f1800deef121f1e76426a00665e5c4479674322d4f75edadd46debd5cd992f6ed815250815260200160405180604001604052807f090689d0585ff075ec9e99ad690c3395bc4b313370b38ef355acdadcd122975b81526020017f12c85ea5db8c6deb4aab71808dcb408fe3d1e7690c43d37b4ce6cc0166fa7daa8152508152508160400181905250604051806040016040528060405180604001604052807f13c470924a9349f304e12ad7f49f5294f14c7ae80c75438e37354db533f6dd2881526020017f06dcdd24d3b3ad504e625ea9048b19582faebbb5f2a414211af822e19be950f3815250815260200160405180604001604052807f151ad596dbfa3915766ff6bd3ecc52d62d8bfe75170158afc68afefb6cff675b81526020017f0f4e6cd4ebcbc80c0c3ce11f0e58c8a2dcffebd150d9ab39d7bd554d8df1a6588152508152508160600181905250604567ffffffffffffffff811180156108bd57600080fd5b506040519080825280602002602001820160405280156108f757816020015b6108e4612f6d565b8152602001906001900390816108dc5790505b50816080018190525060405180604001604052807f286e8365fda1e6e1e1f73a6d0936b5777170aa3241a68232e5a82c0b8967663a81526020017f26558acd140bbe70eca655cc6729ea7a77c9d8d6edf34cd2e398b8633bad0825815250816080015160008151811061096657fe5b602002602001018190525060405180604001604052807f28a0e5570b5e4566406d423398a4516b12aea9de64bda752f667c827fe7b769481526020017f0b999e34c335041b3f630f3a0c1618b190b2c06f7cceaf135cefea6cf351259781525081608001516001815181106109d757fe5b602002602001018190525060405180604001604052807f17106430c2b96410d5de1c91910d1de3ee84e0c0fc0f49e0ff6dd80ec110243381526020017f1322cd3ef8ec4a619581247d9af4a15f69b94ab20cea778dbfecd900d336a4898152508160800151600281518110610a4857fe5b602002602001018190525060405180604001604052807f0803135946cf4a5c9b5de19aa3125d105d467424cc6a4f3a55f6d0e0fb07841781526020017f2a23b18115d33269b3a882e7f16900f76248ef0106cab8d4170277229dda748a8152508160800151600381518110610ab957fe5b602002602001018190525060405180604001604052807f23c0806ddb8261c2bc9b780405707c49325fd7fe48ba1f45bc59c47af292c87381526020017f0414b0eae86db451c36f3fbe5ff5f6043633fb5e8f6c349e1b885317bb97892a8152508160800151600481518110610b2a57fe5b602002602001018190525060405180604001604052807f17302f79e74c14483cff5429c67c1d4fd725451ab7557a5bba1928a236ed043781526020017f2d9b0b1b3464ddbe8eb4e35278f40cfb062b97ad2b042f86412658b55bd5272f8152508160800151600581518110610b9b57fe5b602002602001018190525060405180604001604052807f2fa2db09e5426fe23c6165e985934c930823c3aa088403303a0ad204504e36f381526020017f097c2cba931826a3234178e888cfc3dbcf44c56e9581430bfe3002b80b34e83d8152508160800151600681518110610c0c57fe5b602002602001018190525060405180604001604052807f0d475bdeb9726c87358036afcd2b4bf73c76e467c87a9ba62c53a38d63cde3f381526020017f208b242e45f9f653b25cf83e78a0fa2ae0ffa5ea96057a672cfb5abde8c4bd3a8152508160800151600781518110610c7d57fe5b602002602001018190525060405180604001604052807f24e01cfae19b1d5fe5224a6bfc1e1497f9fe99e583d222a55c0db8e8a637294581526020017f1f090db7bebb840e1e7024b711e71ceea55c8080f92f6b00e38ced4e31bc8bc48152508160800151600881518110610cee57fe5b602002602001018190525060405180604001604052807f1882acb884bcb2466334b89566221b277a8d2b9edc791514066eaf92f795800481526020017f162f1230e3df87ff2af7812c9cb14148f56333276c19d8d4a2ad4f336a4ada5f8152508160800151600981518110610d5f57fe5b602002602001018190525060405180604001604052807f1683932de356f4385cedae14b9101515f63e88d6fe1d46ba840156d0472284b181526020017f0b27a32bd8ca8320af08a562ba2a3f4501e30769fad79667bfad246c7ee898d98152508160800151600a81518110610dd057fe5b602002602001018190525060405180604001604052807f213fc4fd6493b14bcc6be2dbc14cbdc6445bc12ce4ffb8985ceeded87c236ca181526020017f2952075de526578f59dc20516a13198f63f650c8b94c934ac292848141e583f48152508160800151600b81518110610e4157fe5b602002602001018190525060405180604001604052807f2b0ceb9131128612b8c9525dd83bb5eb1c6e0460ead7961523cdb5c83f50738d81526020017f1969493139efa4560af5278f753d3c7eee5ebd84157978308afad7ccf72861038152508160800151600c81518110610eb257fe5b602002602001018190525060405180604001604052807f2537299d8d2a089e1113d103295412a097ac641af112f60b89ba3bb97d4f498f81526020017f1177ed1438132f564052b7d96baebcba7ae1dee4a3c3d24499a312c615f8792a8152508160800151600d81518110610f2357fe5b602002602001018190525060405180604001604052807f1fd2268f99247081d19c0e440f247876b8512b777f4526d1e229020bbff68a8c81526020017f0fb9a69e86fb19f91e60fe5f95e5aee7fb9118d254d445dc930fce40fd27f5088152508160800151600e81518110610f9457fe5b602002602001018190525060405180604001604052807f2bc9b7c2ac3ac7f4a92823eb74fb822fa32839a7db0557fc24b397f3d076936281526020017f13033f2fcc7b9cab61886539819433f5597f7bf485484148ad75367dd42259778152508160800151600f8151811061100557fe5b602002602001018190525060405180604001604052807f29b74f25a5354c435364d43489a615d243fe71afd577f40ebc4381fe0f1213c981526020017f16998299e9ea2a65a2942ead92892b45ea0182f29910be78a73d18dbffc3d216815250816080015160108151811061107657fe5b602002602001018190525060405180604001604052807f11fd5495073517d2e92b6aadcac9c12d3fe17a443642ca7c2eef9d9cafeeeb9681526020017f08ae8e0e5f94003a2e269ab60b525fa97720edc72316aeb2aca63b92ab595ea181525081608001516011815181106110e757fe5b602002602001018190525060405180604001604052807f1217339fe00d71de0960ccdaae6400bebabf5b6fa53e6e40bb8761e4bdbf1b3681526020017f1aec57614d467600774ffdc2cf43da940af472365631d6e02500ba52d297a9f6815250816080015160128151811061115857fe5b602002602001018190525060405180604001604052807e1c770ae831f41fb7b3ab66ae7fe39e347f988e35a1fe55394b4208b6f1b35481526020017f096d58951ae0874f1cab71bc904cd64fb4d450a26e44189df8e998149bbb413181525081608001516013815181106111c857fe5b602002602001018190525060405180604001604052807f0d4798e9f654bf0a80ce4b085d2b9f2bea94d02b4a7ecb6e5607aa269b8692b581526020017f296efdee2f91b749bcf6672662c473dc79b33ee5a56932cfc06fd2e2e5f47e22815250816080015160148151811061123957fe5b602002602001018190525060405180604001604052807f16229a205e92fd338219aa32946f0b7ddf8ae804d236804fa301a030ba0fcd8181526020017f14b4c8402c85d1e6c1a154ab52f102f587b875274264dc2376ba143013e43edd81525081608001516015815181106112aa57fe5b602002602001018190525060405180604001604052807f1d84f88f7963067c29980f16049705109446593ccf14901d4e23fb0f5c22375481526020017f130f4729c9025384935516d0ea3fa18e7c332c7da0f7470d83db165f391ad547815250816080015160168151811061131b57fe5b602002602001018190525060405180604001604052807f2307be3550f91c3cebd1c682a4f9cbcbe2543892eb3d756431828752440921dc81526020017f12f6ab709dea48db3629e27059f04385352e0920d24f383c3ead81ed2a7aef2d815250816080015160178151811061138c57fe5b602002602001018190525060405180604001604052807f28e3c4f6a6c2347ddd2b62946825e805d6c635f4a06b4d8317840d2fc49eb68c81526020017f1eb491543c6abf11d8011677083075d6fa479d5edd956dfd37b3d4f1507c8e5481525081608001516018815181106113fd57fe5b602002602001018190525060405180604001604052807f0fe574f7b492d5fc37046530e0f791bc3a6f5308d712fa3a78a78ac8be0d394c81526020017f1e7645ef126293d9a88c814570a39b6213aea007b7ab319e700a500b47ed028e815250816080015160198151811061146e57fe5b602002602001018190525060405180604001604052807f21716e7e42e082ad6b895ca6882ae8cd4087141e115552288f9fc3b2059ee2cf81526020017f20d2ee02899e4e20955758d59817240bf547b90c79db0fec6b65ddc0cc669d3b8152508160800151601a815181106114df57fe5b602002602001018190525060405180604001604052807f1dd8dd5ce7e8b16c56683d038edf1949ad7bfaf71f9826488330f8a57385bc1381526020017f27603a6c6b021e408cee81a78744afdf19e56a2c8d20dac15d03046d7b16eb048152508160800151601b8151811061155057fe5b602002602001018190525060405180604001604052807f2bd4f8e78eddebe40620b711720ed102d95efa251bbbf9b697c535575e67b48581526020017f0d99aa75f789b68d42051433e6bb0df75a869cd2361916dbbdd81334cbc63dc88152508160800151601c815181106115c157fe5b602002602001018190525060405180604001604052807f299f2ce0746f9584527cc31251fb3660823f901164898144b95b82950496b5e481526020017f0f7fe1b194459047a6177ee05ce42a004ba837ec0698122659bef652b3c312fd8152508160800151601d8151811061163257fe5b602002602001018190525060405180604001604052807f0d4fc16a6ab261f96fdcb5559deb3081ccd73e109960dc5dd867914d1ea783f181526020017f1c4af9139e9a2a706d99880a5e687aa674802006b86a89faba752043a517fac58152508160800151601e815181106116a357fe5b602002602001018190525060405180604001604052807f0a33e6058b524ac2586f0e90d85a9b3b661f6368eb643b6fd3a8499219d1247d81526020017f1a880c9af38c992a6b5e473af6f1e3be0755543b5d4ed368103cd580ce671b3b8152508160800151601f8151811061171457fe5b602002602001018190525060405180604001604052807f139d7dd893bb5099df9a30b16fefd371f87c61fef379c50aaa92dd00c48c8dc681526020017f1df4722411aad187b07a8cfa881f2f3e9396ce01a4158b0198a6f1b941ee32b1815250816080015160208151811061178557fe5b602002602001018190525060405180604001604052807f1fe14b118754f5f4b3f449f2e0cb8d72f3e11b6b8a678ec58d599ef35452f38581526020017f1d0a27500065decd3902445d35b8e30d2b82a7b79541e19655cc838b3eb8979281525081608001516021815181106117f657fe5b602002602001018190525060405180604001604052807f2a67dc5964ec9aabf4fde7182ad8d88cdae4c77b3532d5128c41da25d88ac2bf81526020017f1011b0fd3684909614469b549526eac4b84fe421c09f8e0cd8601cc533b44b3b815250816080015160228151811061186757fe5b602002602001018190525060405180604001604052807f05f7f62ce7ddee01f64995cf97290c2dc0d2dcdfc274e810531ced79663dad3f81526020017f2b6de63917febc41bbb42952695298cfe5485c2f88615ba05b3588987bf45d1481525081608001516023815181106118d857fe5b602002602001018190525060405180604001604052807f1e9bb84bb3832df47a1410e3096a4a827298e07f04c334d474a432479939135c81526020017f147e1bb19675425a93fee7c6daf18477cf04af477c95b3b558f131417808e49a815250816080015160248151811061194957fe5b602002602001018190525060405180604001604052807f0bc863967e3021c49db56b4af06b3f19a1a74203b5feeeefd4b9988543dabdd581526020017f1333c76cf7625e334cc16d9791ebe268dc39d1af2a1e8284753196b00cd1c79881525081608001516025815181106119ba57fe5b602002602001018190525060405180604001604052807f2f4b6a86d8ff5ae8e587c20129fc2a6c26b5e524801bac22346d4d227e96c69f81526020017f07bdf52bb7b3e2c362937d0f6f38e5afdbfa2d6a9460c29fc1142cc48845f8168152508160800151602681518110611a2b57fe5b602002602001018190525060405180604001604052807f1086ce091c04b2ff67999e9c02c6c24a0d2c7eb932f9b0a9398fc8b3803cf85281526020017f29aa00d99f341a453b1c2d090ec2c610b21450398e22c6989d45eea5fb2e96a08152508160800151602781518110611a9c57fe5b602002602001018190525060405180604001604052807f0796dce1e8b281504c33c68d0d4c5e25ccba200fb10254bcccc62e0082e643cb81526020017f2fc82fc1c16d6b0c0d6a89309f7c8fc235d9bb30d95004984becaaecc6ecc0518152508160800151602881518110611b0d57fe5b602002602001018190525060405180604001604052807f2e687a274befdc602e515f0a9382721854cac55f4b371f1e5e430e0a5663e11b81526020017f0b0200a30e4137b049489d22b8dd7dac67a322fa30b519b403ca5111ad23e42d8152508160800151602981518110611b7e57fe5b602002602001018190525060405180604001604052807f0ffd4242cd0d81cfe13d31ee0009e1629dfc3dde314caefb4ab1d07387ac36c781526020017f21b33281bfea4a628d33df4dc0783ae9606b53448fcdb26e8be83b8797fad1798152508160800151602a81518110611bef57fe5b602002602001018190525060405180604001604052807f07c03c4720bb99ace3a321a045a0707e3f17baab2292ca1d6e18a3dfc0eb728881526020017f141572f32c5a03acec243140f3922cbbb24b72e66b70f6882c6a566630b1d8208152508160800151602b81518110611c6057fe5b602002602001018190525060405180604001604052807f2560991a40bc0f6a0ec2aec5d7d63b0b15d844f8ccebb34edb27f77e94b9323e81526020017f12f00e2fda5cda942d56d20a05e9145f09c7fb1ae8d47d8b16b9a23d4abe71368152508160800151602c81518110611cd157fe5b602002602001018190525060405180604001604052807f1d0047b9281aa7727e8aca9249c41428f64f2105462c70ab1f918d464c7ff2c081526020017f1e6a70ddea6f0fa78e48a960783deb131d3a0d8176d8710a0f8a78dd383919568152508160800151602d81518110611d4257fe5b602002602001018190525060405180604001604052807f1426258650d2d8c6bd671d1052b2fbb5c1e363e4b98426048ec480204157944f81526020017f2f746561c2f1a98903e3c55205134cf32e6bcfb588bbecf56e9bb6eb37bf27658152508160800151602e81518110611db357fe5b602002602001018190525060405180604001604052807f222fe54cd16d153ecd1d529258dd5b1956bd40b5b92697c3e62ba3672f2815b081526020017f1006bc61a27d9433771d6eea61f34c7d6e6b96d2f321cc3b41123eb378e080568152508160800151602f81518110611e2457fe5b602002602001018190525060405180604001604052807f291277771e85d53ce048d90aad5566badb2a3fef0848eedcff3c225fd147180781526020017f164d0f210f05d714411711a11cd75ddbc5120814e9ef56e4a46e44b1c98549c28152508160800151603081518110611e9557fe5b602002602001018190525060405180604001604052807f2b5d90427309b60a937ae7937651d3232a9e468220189c853b37c0cf23f0c25681526020017f0832ab3ea05724eff4d513c1f187334c5a8206f8210f0c5d77196eb10400364c8152508160800151603181518110611f0657fe5b602002602001018190525060405180604001604052807f0fcdb7b9ad679dc340e9f2ec62617ac02dcb6e7b6895b0495375035697b3860f81526020017f2176c450d63cbd084e6c74b2f72f39793bcd5cf6e4d426ce86f3f1ad36f5123a8152508160800151603281518110611f7757fe5b602002602001018190525060405180604001604052807f1f84d66ef0c01faab404c7756d9d7612a92ad25d8ca9d110739b5ae3e04ea47b81526020017f0d01a2a734e78c9c22bb170bb7c0ae58401472a2f1352c07853eeceef80c5c5b8152508160800151603381518110611fe857fe5b602002602001018190525060405180604001604052807f1ab874ac83556e33371e04682ae1ae44bcb628a78eddbb4fa1ab7fd22d13ad5a81526020017f078c0cccdb78cf4f16415f2ae339b9a4ad2fbe5d7b906b3829acd15d54a255b5815250816080015160348151811061205957fe5b602002602001018190525060405180604001604052807f3025cd56e134d50cc3f33e74fdbecabbb4e64d6c4b8a6aba88d47dba54098ab581526020017f17bd4f353b90eb10f5ec01f0551fad031124733d89d8b1d2954c76ecfc7bed7481525081608001516035815181106120ca57fe5b602002602001018190525060405180604001604052807f0def9754093a3f4e320d7227c9aa44734ebbf086978056789ebd1c865961984c81526020017f019aeda6c28c6cf3ac901f430b1926b0e6731ab9290033751b7a9bbb43b88eae815250816080015160368151811061213b57fe5b602002602001018190525060405180604001604052807f0e976fee8b8f017f0a677c1c6c9a2d22b85cd18f43e460fac9bf348526df5d1381526020017f2a3e9ae6fce25b2ccef9e4dcd4e0fb1c7d7ad4f1a26767d9e984c01d32d32f8081525081608001516037815181106121ac57fe5b602002602001018190525060405180604001604052807f0f8c47c668b59841bb4dd4b734d506adc1f91007f18ebd9916b0ca8ce1e411fd81526020017f1c306bf0382bd19655ec7dcfc89e9174cc8d559b81b034a53dd9fe6050bc0ee4815250816080015160388151811061221d57fe5b602002602001018190525060405180604001604052807f0d9c7d01f04dbc8c329fe5dd28d067d812832765e0fd5d8bd585db8e05f548b781526020017f17582bcd99d9fefc11b82c75ec7dab6ef8ece65c420aacc4dc929538702032aa815250816080015160398151811061228e57fe5b602002602001018190525060405180604001604052807f071a484aaa84c549becfdaded3a504dc22557a89464e35f0ef458e0ffd18d87281526020017f11557ce10ef18ced29d8c171f5e9b62eee1eb6757a766ad40e433f9f95de962a8152508160800151603a815181106122ff57fe5b602002602001018190525060405180604001604052807f12ba8a421de09b289acfdcac1485280b22b7b5a6f69887ee148a9a6464a54dd081526020017f1e448904d23b796c1bc8537bea99f3934362d2bca08e1fe172c3200bb1251dd48152508160800151603b8151811061237057fe5b602002602001018190525060405180604001604052807f2031174785ccde348782b5e8d5a8266868317dd5f87c616c6251266568c1bc9381526020017f2984ec6800a49fee2adf8e76bf946f2d1262037ec093655ed9d5233ef0322aff8152508160800151603c815181106123e157fe5b602002602001018190525060405180604001604052807f0ac81966fe042b1bd5d4b61a49a4d05de9b4d22d35e9b88b008b36bbc6a4115f81526020017f04a18370feb03730437dd37ee0332e0355805928116f179f8c958b744509570b8152508160800151603d8151811061245257fe5b602002602001018190525060405180604001604052807f0ccc9cae9d8e802371d5c699922e4dcea8e1b66527fac4b99f3d4460928c950981526020017f035e43a36ef54b18b6ad1bc2e61cd12b1ce8391da6fa4659e6e09a6ac47220d28152508160800151603e815181106124c357fe5b602002602001018190525060405180604001604052807f03c6c1687ae1fff60f9720043262f1e24ed8030d9b73975881934338123c98cc81526020017f09d02aef3f578d66feaa3837d99a7e8bc544be0130f286b41a6710787d56b5578152508160800151603f8151811061253457fe5b602002602001018190525060405180604001604052807f1f5f7a8c435eb950a3b53aef8c9af3d71c2180a709fc22acd8bfa0eba6e634ac81526020017e864b5ae7610ab202765c0a7f1259f5d5475f1bd10ef06ca818d71d0083b7dc81525081608001516040815181106125a457fe5b602002602001018190525060405180604001604052807f2e0562c3f916c73aefe0211b28d8b8665a5cb3bc5031da8223d2410ff72aebec81526020017f1ec9bb4a7db294647a96ec3e6030f360dbb7762fe8315332606404774b36a4ce815250816080015160418151811061261557fe5b602002602001018190525060405180604001604052807f0807eca40866a691330a0f6b200d673df414cef7b564ac72332bd5cd1a5ac07c81526020017f1b2d15b3ae3a38e5fd1a1aef7f648113ccea4e3d47e2f316dcf0ef923f7512c1815250816080015160428151811061268657fe5b602002602001018190525060405180604001604052807f1be9165f0e5d0884bb989cd783fc5bdcf3742b80fcf5e96916d883672de87a1981526020017f1c7ee044a31c1992bc67190087281f3760d2e918e139171dfc64b0e37065256b81525081608001516043815181106126f757fe5b602002602001018190525060405180604001604052807f11202210f955518767a35e709b9d077bc709adc8f74dfc71c15630f0a534f32881526020017f03c7470cfcb54896a6a58cda25536b4994cbbf0027f04106be6fe9a97817b44b815250816080015160448151811061276857fe5b602002602001018190525090565b61277e612f6d565b612786612f87565b83600001518160006003811061279857fe5b6020020181815250508360200151816001600381106127b357fe5b60200201818152505082816002600381106127ca57fe5b602002018181525050600060608360808460076107d05a03fa905080600081146127f3576127f5565bfe5b5080612869576040517f08c379a00000000000000000000000000000000000000000000000000000000081526004018080602001828103825260128152602001807f70616972696e672d6d756c2d6661696c6564000000000000000000000000000081525060200191505060405180910390fd5b505092915050565b612879612f6d565b612881612fa9565b83600001518160006004811061289357fe5b6020020181815250508360200151816001600481106128ae57fe5b6020020181815250508260000151816002600481106128c957fe5b6020020181815250508260200151816003600481106128e457fe5b602002018181525050600060608360c08460066107d05a03fa9050806000811461290d5761290f565bfe5b5080612983576040517f08c379a00000000000000000000000000000000000000000000000000000000081526004018080602001828103825260128152602001807f70616972696e672d6164642d6661696c6564000000000000000000000000000081525060200191505060405180910390fd5b505092915050565b612993612f6d565b60007f30644e72e131a029b85045b68181585d97816a916871ca8d3c208c16d87cfd479050600083600001511480156129d0575060008360200151145b156129f4576040518060400160405280600081526020016000815250915050612a20565b60405180604001604052808460000151815260200182856020015181612a1657fe5b0683038152509150505b919050565b60006060600467ffffffffffffffff81118015612a4157600080fd5b50604051908082528060200260200182016040528015612a7b57816020015b612a68612f6d565b815260200190600190039081612a605790505b5090506060600467ffffffffffffffff81118015612a9857600080fd5b50604051908082528060200260200182016040528015612ad257816020015b612abf612fcb565b815260200190600190039081612ab75790505b5090508a82600081518110612ae357fe5b60200260200101819052508882600181518110612afc57fe5b60200260200101819052508682600281518110612b1557fe5b60200260200101819052508482600381518110612b2e57fe5b60200260200101819052508981600081518110612b4757fe5b60200260200101819052508781600181518110612b6057fe5b60200260200101819052508581600281518110612b7957fe5b60200260200101819052508381600381518110612b9257fe5b6020026020010181905250612ba78282612bb7565b9250505098975050505050505050565b60008151835114612c30576040517f08c379a00000000000000000000000000000000000000000000000000000000081526004018080602001828103825260168152602001807f70616972696e672d6c656e677468732d6661696c65640000000000000000000081525060200191505060405180910390fd5b600083519050600060068202905060608167ffffffffffffffff81118015612c5757600080fd5b50604051908082528060200260200182016040528015612c865781602001602082028036833780820191505090505b50905060008090505b83811015612e2c57868181518110612ca357fe5b602002602001015160000151826000600684020181518110612cc157fe5b602002602001018181525050868181518110612cd957fe5b602002602001015160200151826001600684020181518110612cf757fe5b602002602001018181525050858181518110612d0f57fe5b602002602001015160000151600060028110612d2757fe5b6020020151826002600684020181518110612d3e57fe5b602002602001018181525050858181518110612d5657fe5b602002602001015160000151600160028110612d6e57fe5b6020020151826003600684020181518110612d8557fe5b602002602001018181525050858181518110612d9d57fe5b602002602001015160200151600060028110612db557fe5b6020020151826004600684020181518110612dcc57fe5b602002602001018181525050858181518110612de457fe5b602002602001015160200151600160028110612dfc57fe5b6020020151826005600684020181518110612e1357fe5b6020026020010181815250508080600101915050612c8f565b50612e35612ff1565b6000602082602086026020860160086107d05a03fa90508060008114612e5a57612e5c565bfe5b5080612ed0576040517f08c379a00000000000000000000000000000000000000000000000000000000081526004018080602001828103825260158152602001807f70616972696e672d6f70636f64652d6661696c6564000000000000000000000081525060200191505060405180910390fd5b600082600060018110612edf57fe5b602002015114159550505050505092915050565b6040518060600160405280612f06612f6d565b8152602001612f13612fcb565b8152602001612f20612f6d565b81525090565b6040518060a00160405280612f39612f6d565b8152602001612f46612fcb565b8152602001612f53612fcb565b8152602001612f60612fcb565b8152602001606081525090565b604051806040016040528060008152602001600081525090565b6040518060600160405280600390602082028036833780820191505090505090565b6040518060800160405280600490602082028036833780820191505090505090565b6040518060400160405280612fde613013565b8152602001612feb613013565b81525090565b6040518060200160405280600190602082028036833780820191505090505090565b604051806040016040528060029060208202803683378082019150509050509056fea2646970667358221220064c927ee8ea5816893be46ff7499aa13b3985f2cd468c6f368904ac064fbff564736f6c634300060b0033","opcodes":"PUSH1 0x80 PUSH1 0x40 MSTORE CALLVALUE DUP1 ISZERO PUSH2 0x10 JUMPI PUSH1 0x0 DUP1 REVERT JUMPDEST POP PUSH2 0x306B DUP1 PUSH2 0x20 PUSH1 0x0 CODECOPY PUSH1 0x0 RETURN INVALID PUSH1 0x80 PUSH1 0x40 MSTORE CALLVALUE DUP1 ISZERO PUSH2 0x10 JUMPI PUSH1 0x0 DUP1 REVERT JUMPDEST POP PUSH1 0x4 CALLDATASIZE LT PUSH2 0x2B JUMPI PUSH1 0x0 CALLDATALOAD PUSH1 0xE0 SHR DUP1 PUSH4 0x3420A296 EQ PUSH2 0x30 JUMPI JUMPDEST PUSH1 0x0 DUP1 REVERT JUMPDEST PUSH2 0x190 PUSH1 0x4 DUP1 CALLDATASIZE SUB PUSH2 0x980 DUP2 LT ISZERO PUSH2 0x47 JUMPI PUSH1 0x0 DUP1 REVERT JUMPDEST DUP2 ADD SWAP1 DUP1 DUP1 PUSH1 0x40 ADD SWAP1 PUSH1 0x2 DUP1 PUSH1 0x20 MUL PUSH1 0x40 MLOAD SWAP1 DUP2 ADD PUSH1 0x40 MSTORE DUP1 SWAP3 SWAP2 SWAP1 DUP3 PUSH1 0x2 PUSH1 0x20 MUL DUP1 DUP3 DUP5 CALLDATACOPY PUSH1 0x0 DUP2 DUP5 ADD MSTORE PUSH1 0x1F NOT PUSH1 0x1F DUP3 ADD AND SWAP1 POP DUP1 DUP4 ADD SWAP3 POP POP POP POP POP POP SWAP2 SWAP3 SWAP2 SWAP3 SWAP1 DUP1 PUSH1 0x80 ADD SWAP1 PUSH1 0x2 DUP1 PUSH1 0x20 MUL PUSH1 0x40 MLOAD SWAP1 DUP2 ADD PUSH1 0x40 MSTORE DUP1 SWAP3 SWAP2 SWAP1 PUSH1 0x0 SWAP1 JUMPDEST DUP3 DUP3 LT ISZERO PUSH2 0xFC JUMPI DUP4 DUP3 PUSH1 0x40 MUL ADD PUSH1 0x2 DUP1 PUSH1 0x20 MUL PUSH1 0x40 MLOAD SWAP1 DUP2 ADD PUSH1 0x40 MSTORE DUP1 SWAP3 SWAP2 SWAP1 DUP3 PUSH1 0x2 PUSH1 0x20 MUL DUP1 DUP3 DUP5 CALLDATACOPY PUSH1 0x0 DUP2 DUP5 ADD MSTORE PUSH1 0x1F NOT PUSH1 0x1F DUP3 ADD AND SWAP1 POP DUP1 DUP4 ADD SWAP3 POP POP POP POP POP POP DUP2 MSTORE PUSH1 0x20 ADD SWAP1 PUSH1 0x1 ADD SWAP1 PUSH2 0xA8 JUMP JUMPDEST POP POP POP POP SWAP2 SWAP3 SWAP2 SWAP3 SWAP1 DUP1 PUSH1 0x40 ADD SWAP1 PUSH1 0x2 DUP1 PUSH1 0x20 MUL PUSH1 0x40 MLOAD SWAP1 DUP2 ADD PUSH1 0x40 MSTORE DUP1 SWAP3 SWAP2 SWAP1 DUP3 PUSH1 0x2 PUSH1 0x20 MUL DUP1 DUP3 DUP5 CALLDATACOPY PUSH1 0x0 DUP2 DUP5 ADD MSTORE PUSH1 0x1F NOT PUSH1 0x1F DUP3 ADD AND SWAP1 POP DUP1 DUP4 ADD SWAP3 POP POP POP POP POP POP SWAP2 SWAP3 SWAP2 SWAP3 SWAP1 DUP1 PUSH2 0x880 ADD SWAP1 PUSH1 0x44 DUP1 PUSH1 0x20 MUL PUSH1 0x40 MLOAD SWAP1 DUP2 ADD PUSH1 0x40 MSTORE DUP1 SWAP3 SWAP2 SWAP1 DUP3 PUSH1 0x44 PUSH1 0x20 MUL DUP1 DUP3 DUP5 CALLDATACOPY PUSH1 0x0 DUP2 DUP5 ADD MSTORE PUSH1 0x1F NOT PUSH1 0x1F DUP3 ADD AND SWAP1 POP DUP1 DUP4 ADD SWAP3 POP POP POP POP POP POP SWAP2 SWAP3 SWAP2 SWAP3 SWAP1 POP POP POP PUSH2 0x1AA JUMP JUMPDEST PUSH1 0x40 MLOAD DUP1 DUP3 ISZERO ISZERO ISZERO ISZERO DUP2 MSTORE PUSH1 0x20 ADD SWAP2 POP POP PUSH1 0x40 MLOAD DUP1 SWAP2 SUB SWAP1 RETURN JUMPDEST PUSH1 0x0 PUSH2 0x1B4 PUSH2 0x2EF3 JUMP JUMPDEST PUSH1 0x40 MLOAD DUP1 PUSH1 0x40 ADD PUSH1 0x40 MSTORE DUP1 DUP8 PUSH1 0x0 PUSH1 0x2 DUP2 LT PUSH2 0x1CC JUMPI INVALID JUMPDEST PUSH1 0x20 MUL ADD MLOAD DUP2 MSTORE PUSH1 0x20 ADD DUP8 PUSH1 0x1 PUSH1 0x2 DUP2 LT PUSH2 0x1E3 JUMPI INVALID JUMPDEST PUSH1 0x20 MUL ADD MLOAD DUP2 MSTORE POP DUP2 PUSH1 0x0 ADD DUP2 SWAP1 MSTORE POP PUSH1 0x40 MLOAD DUP1 PUSH1 0x40 ADD PUSH1 0x40 MSTORE DUP1 PUSH1 0x40 MLOAD DUP1 PUSH1 0x40 ADD PUSH1 0x40 MSTORE DUP1 DUP9 PUSH1 0x0 PUSH1 0x2 DUP2 LT PUSH2 0x216 JUMPI INVALID JUMPDEST PUSH1 0x20 MUL ADD MLOAD PUSH1 0x0 PUSH1 0x2 DUP2 LT PUSH2 0x227 JUMPI INVALID JUMPDEST PUSH1 0x20 MUL ADD MLOAD DUP2 MSTORE PUSH1 0x20 ADD DUP9 PUSH1 0x0 PUSH1 0x2 DUP2 LT PUSH2 0x23E JUMPI INVALID JUMPDEST PUSH1 0x20 MUL ADD MLOAD PUSH1 0x1 PUSH1 0x2 DUP2 LT PUSH2 0x24F JUMPI INVALID JUMPDEST PUSH1 0x20 MUL ADD MLOAD DUP2 MSTORE POP DUP2 MSTORE PUSH1 0x20 ADD PUSH1 0x40 MLOAD DUP1 PUSH1 0x40 ADD PUSH1 0x40 MSTORE DUP1 DUP9 PUSH1 0x1 PUSH1 0x2 DUP2 LT PUSH2 0x274 JUMPI INVALID JUMPDEST PUSH1 0x20 MUL ADD MLOAD PUSH1 0x0 PUSH1 0x2 DUP2 LT PUSH2 0x285 JUMPI INVALID JUMPDEST PUSH1 0x20 MUL ADD MLOAD DUP2 MSTORE PUSH1 0x20 ADD DUP9 PUSH1 0x1 PUSH1 0x2 DUP2 LT PUSH2 0x29C JUMPI INVALID JUMPDEST PUSH1 0x20 MUL ADD MLOAD PUSH1 0x1 PUSH1 0x2 DUP2 LT PUSH2 0x2AD JUMPI INVALID JUMPDEST PUSH1 0x20 MUL ADD MLOAD DUP2 MSTORE POP DUP2 MSTORE POP DUP2 PUSH1 0x20 ADD DUP2 SWAP1 MSTORE POP PUSH1 0x40 MLOAD DUP1 PUSH1 0x40 ADD PUSH1 0x40 MSTORE DUP1 DUP6 PUSH1 0x0 PUSH1 0x2 DUP2 LT PUSH2 0x2D8 JUMPI INVALID JUMPDEST PUSH1 0x20 MUL ADD MLOAD DUP2 MSTORE PUSH1 0x20 ADD DUP6 PUSH1 0x1 PUSH1 0x2 DUP2 LT PUSH2 0x2EF JUMPI INVALID JUMPDEST PUSH1 0x20 MUL ADD MLOAD DUP2 MSTORE POP DUP2 PUSH1 0x40 ADD DUP2 SWAP1 MSTORE POP PUSH1 0x60 PUSH1 0x44 PUSH8 0xFFFFFFFFFFFFFFFF DUP2 GT DUP1 ISZERO PUSH2 0x319 JUMPI PUSH1 0x0 DUP1 REVERT JUMPDEST POP PUSH1 0x40 MLOAD SWAP1 DUP1 DUP3 MSTORE DUP1 PUSH1 0x20 MUL PUSH1 0x20 ADD DUP3 ADD PUSH1 0x40 MSTORE DUP1 ISZERO PUSH2 0x348 JUMPI DUP2 PUSH1 0x20 ADD PUSH1 0x20 DUP3 MUL DUP1 CALLDATASIZE DUP4 CALLDATACOPY DUP1 DUP3 ADD SWAP2 POP POP SWAP1 POP JUMPDEST POP SWAP1 POP PUSH1 0x0 DUP1 SWAP1 POP JUMPDEST PUSH1 0x44 DUP2 LT ISZERO PUSH2 0x390 JUMPI DUP5 DUP2 PUSH1 0x44 DUP2 LT PUSH2 0x366 JUMPI INVALID JUMPDEST PUSH1 0x20 MUL ADD MLOAD DUP3 DUP3 DUP2 MLOAD DUP2 LT PUSH2 0x377 JUMPI INVALID JUMPDEST PUSH1 0x20 MUL PUSH1 0x20 ADD ADD DUP2 DUP2 MSTORE POP POP DUP1 DUP1 PUSH1 0x1 ADD SWAP2 POP POP PUSH2 0x351 JUMP JUMPDEST POP PUSH1 0x0 PUSH2 0x39D DUP3 DUP5 PUSH2 0x3BD JUMP JUMPDEST EQ ISZERO PUSH2 0x3AE JUMPI PUSH1 0x1 SWAP3 POP POP POP PUSH2 0x3B5 JUMP JUMPDEST PUSH1 0x0 SWAP3 POP POP POP JUMPDEST SWAP5 SWAP4 POP POP POP POP JUMP JUMPDEST PUSH1 0x0 DUP1 PUSH32 0x30644E72E131A029B85045B68181585D2833E84879B9709143E1F593F0000001 SWAP1 POP PUSH2 0x3EB PUSH2 0x2F26 JUMP JUMPDEST PUSH2 0x3F3 PUSH2 0x5F1 JUMP JUMPDEST SWAP1 POP DUP1 PUSH1 0x80 ADD MLOAD MLOAD PUSH1 0x1 DUP7 MLOAD ADD EQ PUSH2 0x473 JUMPI PUSH1 0x40 MLOAD PUSH32 0x8C379A000000000000000000000000000000000000000000000000000000000 DUP2 MSTORE PUSH1 0x4 ADD DUP1 DUP1 PUSH1 0x20 ADD DUP3 DUP2 SUB DUP3 MSTORE PUSH1 0x12 DUP2 MSTORE PUSH1 0x20 ADD DUP1 PUSH32 0x76657269666965722D6261642D696E7075740000000000000000000000000000 DUP2 MSTORE POP PUSH1 0x20 ADD SWAP2 POP POP PUSH1 0x40 MLOAD DUP1 SWAP2 SUB SWAP1 REVERT JUMPDEST PUSH2 0x47B PUSH2 0x2F6D JUMP JUMPDEST PUSH1 0x40 MLOAD DUP1 PUSH1 0x40 ADD PUSH1 0x40 MSTORE DUP1 PUSH1 0x0 DUP2 MSTORE PUSH1 0x20 ADD PUSH1 0x0 DUP2 MSTORE POP SWAP1 POP PUSH1 0x0 DUP1 SWAP1 POP JUMPDEST DUP7 MLOAD DUP2 LT ISZERO PUSH2 0x57A JUMPI DUP4 DUP8 DUP3 DUP2 MLOAD DUP2 LT PUSH2 0x4B0 JUMPI INVALID JUMPDEST PUSH1 0x20 MUL PUSH1 0x20 ADD ADD MLOAD LT PUSH2 0x52B JUMPI PUSH1 0x40 MLOAD PUSH32 0x8C379A000000000000000000000000000000000000000000000000000000000 DUP2 MSTORE PUSH1 0x4 ADD DUP1 DUP1 PUSH1 0x20 ADD DUP3 DUP2 SUB DUP3 MSTORE PUSH1 0x1F DUP2 MSTORE PUSH1 0x20 ADD DUP1 PUSH32 0x76657269666965722D6774652D736E61726B2D7363616C61722D6669656C6400 DUP2 MSTORE POP PUSH1 0x20 ADD SWAP2 POP POP PUSH1 0x40 MLOAD DUP1 SWAP2 SUB SWAP1 REVERT JUMPDEST PUSH2 0x56B DUP3 PUSH2 0x566 DUP6 PUSH1 0x80 ADD MLOAD PUSH1 0x1 DUP6 ADD DUP2 MLOAD DUP2 LT PUSH2 0x545 JUMPI INVALID JUMPDEST PUSH1 0x20 MUL PUSH1 0x20 ADD ADD MLOAD DUP11 DUP6 DUP2 MLOAD DUP2 LT PUSH2 0x559 JUMPI INVALID JUMPDEST PUSH1 0x20 MUL PUSH1 0x20 ADD ADD MLOAD PUSH2 0x2776 JUMP JUMPDEST PUSH2 0x2871 JUMP JUMPDEST SWAP2 POP DUP1 DUP1 PUSH1 0x1 ADD SWAP2 POP POP PUSH2 0x49A JUMP JUMPDEST POP PUSH2 0x59D DUP2 DUP4 PUSH1 0x80 ADD MLOAD PUSH1 0x0 DUP2 MLOAD DUP2 LT PUSH2 0x590 JUMPI INVALID JUMPDEST PUSH1 0x20 MUL PUSH1 0x20 ADD ADD MLOAD PUSH2 0x2871 JUMP JUMPDEST SWAP1 POP PUSH2 0x5D3 PUSH2 0x5AF DUP7 PUSH1 0x0 ADD MLOAD PUSH2 0x298B JUMP JUMPDEST DUP7 PUSH1 0x20 ADD MLOAD DUP5 PUSH1 0x0 ADD MLOAD DUP6 PUSH1 0x20 ADD MLOAD DUP6 DUP8 PUSH1 0x40 ADD MLOAD DUP12 PUSH1 0x40 ADD MLOAD DUP10 PUSH1 0x60 ADD MLOAD PUSH2 0x2A25 JUMP JUMPDEST PUSH2 0x5E3 JUMPI PUSH1 0x1 SWAP4 POP POP POP POP PUSH2 0x5EB JUMP JUMPDEST PUSH1 0x0 SWAP4 POP POP POP POP JUMPDEST SWAP3 SWAP2 POP POP JUMP JUMPDEST PUSH2 0x5F9 PUSH2 0x2F26 JUMP JUMPDEST PUSH1 0x40 MLOAD DUP1 PUSH1 0x40 ADD PUSH1 0x40 MSTORE DUP1 PUSH32 0x2D4D9AA7E302D9DF41749D5507949D05DBEA33FBB16C643B22F599A2BE6DF2E2 DUP2 MSTORE PUSH1 0x20 ADD PUSH32 0x14BEDD503C37CEB061D8EC60209FE345CE89830A19230301F076CAFF004D1926 DUP2 MSTORE POP DUP2 PUSH1 0x0 ADD DUP2 SWAP1 MSTORE POP PUSH1 0x40 MLOAD DUP1 PUSH1 0x40 ADD PUSH1 0x40 MSTORE DUP1 PUSH1 0x40 MLOAD DUP1 PUSH1 0x40 ADD PUSH1 0x40 MSTORE DUP1 PUSH32 0x967032FCBF776D1AFC985F88877F182D38480A653F2DECAA9794CBC3BF3060C DUP2 MSTORE PUSH1 0x20 ADD PUSH32 0xE187847AD4C798374D0D6732BF501847DD68BC0E071241E0213BC7FC13DB7AB DUP2 MSTORE POP DUP2 MSTORE PUSH1 0x20 ADD PUSH1 0x40 MLOAD DUP1 PUSH1 0x40 ADD PUSH1 0x40 MSTORE DUP1 PUSH32 0x304CFBD1E08A704A99F5E847D93F8C3CAAFDDEC46B7A0D379DA69A4D112346A7 DUP2 MSTORE PUSH1 0x20 ADD PUSH32 0x1739C1B1A457A8C7313123D24D2F9192F896B7C63EEA05A9D57F06547AD0CEC8 DUP2 MSTORE POP DUP2 MSTORE POP DUP2 PUSH1 0x20 ADD DUP2 SWAP1 MSTORE POP PUSH1 0x40 MLOAD DUP1 PUSH1 0x40 ADD PUSH1 0x40 MSTORE DUP1 PUSH1 0x40 MLOAD DUP1 PUSH1 0x40 ADD PUSH1 0x40 MSTORE DUP1 PUSH32 0x198E9393920D483A7260BFB731FB5D25F1AA493335A9E71297E485B7AEF312C2 DUP2 MSTORE PUSH1 0x20 ADD PUSH32 0x1800DEEF121F1E76426A00665E5C4479674322D4F75EDADD46DEBD5CD992F6ED DUP2 MSTORE POP DUP2 MSTORE PUSH1 0x20 ADD PUSH1 0x40 MLOAD DUP1 PUSH1 0x40 ADD PUSH1 0x40 MSTORE DUP1 PUSH32 0x90689D0585FF075EC9E99AD690C3395BC4B313370B38EF355ACDADCD122975B DUP2 MSTORE PUSH1 0x20 ADD PUSH32 0x12C85EA5DB8C6DEB4AAB71808DCB408FE3D1E7690C43D37B4CE6CC0166FA7DAA DUP2 MSTORE POP DUP2 MSTORE POP DUP2 PUSH1 0x40 ADD DUP2 SWAP1 MSTORE POP PUSH1 0x40 MLOAD DUP1 PUSH1 0x40 ADD PUSH1 0x40 MSTORE DUP1 PUSH1 0x40 MLOAD DUP1 PUSH1 0x40 ADD PUSH1 0x40 MSTORE DUP1 PUSH32 0x13C470924A9349F304E12AD7F49F5294F14C7AE80C75438E37354DB533F6DD28 DUP2 MSTORE PUSH1 0x20 ADD PUSH32 0x6DCDD24D3B3AD504E625EA9048B19582FAEBBB5F2A414211AF822E19BE950F3 DUP2 MSTORE POP DUP2 MSTORE PUSH1 0x20 ADD PUSH1 0x40 MLOAD DUP1 PUSH1 0x40 ADD PUSH1 0x40 MSTORE DUP1 PUSH32 0x151AD596DBFA3915766FF6BD3ECC52D62D8BFE75170158AFC68AFEFB6CFF675B DUP2 MSTORE PUSH1 0x20 ADD PUSH32 0xF4E6CD4EBCBC80C0C3CE11F0E58C8A2DCFFEBD150D9AB39D7BD554D8DF1A658 DUP2 MSTORE POP DUP2 MSTORE POP DUP2 PUSH1 0x60 ADD DUP2 SWAP1 MSTORE POP PUSH1 0x45 PUSH8 0xFFFFFFFFFFFFFFFF DUP2 GT DUP1 ISZERO PUSH2 0x8BD JUMPI PUSH1 0x0 DUP1 REVERT JUMPDEST POP PUSH1 0x40 MLOAD SWAP1 DUP1 DUP3 MSTORE DUP1 PUSH1 0x20 MUL PUSH1 0x20 ADD DUP3 ADD PUSH1 0x40 MSTORE DUP1 ISZERO PUSH2 0x8F7 JUMPI DUP2 PUSH1 0x20 ADD JUMPDEST PUSH2 0x8E4 PUSH2 0x2F6D JUMP JUMPDEST DUP2 MSTORE PUSH1 0x20 ADD SWAP1 PUSH1 0x1 SWAP1 SUB SWAP1 DUP2 PUSH2 0x8DC JUMPI SWAP1 POP JUMPDEST POP DUP2 PUSH1 0x80 ADD DUP2 SWAP1 MSTORE POP PUSH1 0x40 MLOAD DUP1 PUSH1 0x40 ADD PUSH1 0x40 MSTORE DUP1 PUSH32 0x286E8365FDA1E6E1E1F73A6D0936B5777170AA3241A68232E5A82C0B8967663A DUP2 MSTORE PUSH1 0x20 ADD PUSH32 0x26558ACD140BBE70ECA655CC6729EA7A77C9D8D6EDF34CD2E398B8633BAD0825 DUP2 MSTORE POP DUP2 PUSH1 0x80 ADD MLOAD PUSH1 0x0 DUP2 MLOAD DUP2 LT PUSH2 0x966 JUMPI INVALID JUMPDEST PUSH1 0x20 MUL PUSH1 0x20 ADD ADD DUP2 SWAP1 MSTORE POP PUSH1 0x40 MLOAD DUP1 PUSH1 0x40 ADD PUSH1 0x40 MSTORE DUP1 PUSH32 0x28A0E5570B5E4566406D423398A4516B12AEA9DE64BDA752F667C827FE7B7694 DUP2 MSTORE PUSH1 0x20 ADD PUSH32 0xB999E34C335041B3F630F3A0C1618B190B2C06F7CCEAF135CEFEA6CF3512597 DUP2 MSTORE POP DUP2 PUSH1 0x80 ADD MLOAD PUSH1 0x1 DUP2 MLOAD DUP2 LT PUSH2 0x9D7 JUMPI INVALID JUMPDEST PUSH1 0x20 MUL PUSH1 0x20 ADD ADD DUP2 SWAP1 MSTORE POP PUSH1 0x40 MLOAD DUP1 PUSH1 0x40 ADD PUSH1 0x40 MSTORE DUP1 PUSH32 0x17106430C2B96410D5DE1C91910D1DE3EE84E0C0FC0F49E0FF6DD80EC1102433 DUP2 MSTORE PUSH1 0x20 ADD PUSH32 0x1322CD3EF8EC4A619581247D9AF4A15F69B94AB20CEA778DBFECD900D336A489 DUP2 MSTORE POP DUP2 PUSH1 0x80 ADD MLOAD PUSH1 0x2 DUP2 MLOAD DUP2 LT PUSH2 0xA48 JUMPI INVALID JUMPDEST PUSH1 0x20 MUL PUSH1 0x20 ADD ADD DUP2 SWAP1 MSTORE POP PUSH1 0x40 MLOAD DUP1 PUSH1 0x40 ADD PUSH1 0x40 MSTORE DUP1 PUSH32 0x803135946CF4A5C9B5DE19AA3125D105D467424CC6A4F3A55F6D0E0FB078417 DUP2 MSTORE PUSH1 0x20 ADD PUSH32 0x2A23B18115D33269B3A882E7F16900F76248EF0106CAB8D4170277229DDA748A DUP2 MSTORE POP DUP2 PUSH1 0x80 ADD MLOAD PUSH1 0x3 DUP2 MLOAD DUP2 LT PUSH2 0xAB9 JUMPI INVALID JUMPDEST PUSH1 0x20 MUL PUSH1 0x20 ADD ADD DUP2 SWAP1 MSTORE POP PUSH1 0x40 MLOAD DUP1 PUSH1 0x40 ADD PUSH1 0x40 MSTORE DUP1 PUSH32 0x23C0806DDB8261C2BC9B780405707C49325FD7FE48BA1F45BC59C47AF292C873 DUP2 MSTORE PUSH1 0x20 ADD PUSH32 0x414B0EAE86DB451C36F3FBE5FF5F6043633FB5E8F6C349E1B885317BB97892A DUP2 MSTORE POP DUP2 PUSH1 0x80 ADD MLOAD PUSH1 0x4 DUP2 MLOAD DUP2 LT PUSH2 0xB2A JUMPI INVALID JUMPDEST PUSH1 0x20 MUL PUSH1 0x20 ADD ADD DUP2 SWAP1 MSTORE POP PUSH1 0x40 MLOAD DUP1 PUSH1 0x40 ADD PUSH1 0x40 MSTORE DUP1 PUSH32 0x17302F79E74C14483CFF5429C67C1D4FD725451AB7557A5BBA1928A236ED0437 DUP2 MSTORE PUSH1 0x20 ADD PUSH32 0x2D9B0B1B3464DDBE8EB4E35278F40CFB062B97AD2B042F86412658B55BD5272F DUP2 MSTORE POP DUP2 PUSH1 0x80 ADD MLOAD PUSH1 0x5 DUP2 MLOAD DUP2 LT PUSH2 0xB9B JUMPI INVALID JUMPDEST PUSH1 0x20 MUL PUSH1 0x20 ADD ADD DUP2 SWAP1 MSTORE POP PUSH1 0x40 MLOAD DUP1 PUSH1 0x40 ADD PUSH1 0x40 MSTORE DUP1 PUSH32 0x2FA2DB09E5426FE23C6165E985934C930823C3AA088403303A0AD204504E36F3 DUP2 MSTORE PUSH1 0x20 ADD PUSH32 0x97C2CBA931826A3234178E888CFC3DBCF44C56E9581430BFE3002B80B34E83D DUP2 MSTORE POP DUP2 PUSH1 0x80 ADD MLOAD PUSH1 0x6 DUP2 MLOAD DUP2 LT PUSH2 0xC0C JUMPI INVALID JUMPDEST PUSH1 0x20 MUL PUSH1 0x20 ADD ADD DUP2 SWAP1 MSTORE POP PUSH1 0x40 MLOAD DUP1 PUSH1 0x40 ADD PUSH1 0x40 MSTORE DUP1 PUSH32 0xD475BDEB9726C87358036AFCD2B4BF73C76E467C87A9BA62C53A38D63CDE3F3 DUP2 MSTORE PUSH1 0x20 ADD PUSH32 0x208B242E45F9F653B25CF83E78A0FA2AE0FFA5EA96057A672CFB5ABDE8C4BD3A DUP2 MSTORE POP DUP2 PUSH1 0x80 ADD MLOAD PUSH1 0x7 DUP2 MLOAD DUP2 LT PUSH2 0xC7D JUMPI INVALID JUMPDEST PUSH1 0x20 MUL PUSH1 0x20 ADD ADD DUP2 SWAP1 MSTORE POP PUSH1 0x40 MLOAD DUP1 PUSH1 0x40 ADD PUSH1 0x40 MSTORE DUP1 PUSH32 0x24E01CFAE19B1D5FE5224A6BFC1E1497F9FE99E583D222A55C0DB8E8A6372945 DUP2 MSTORE PUSH1 0x20 ADD PUSH32 0x1F090DB7BEBB840E1E7024B711E71CEEA55C8080F92F6B00E38CED4E31BC8BC4 DUP2 MSTORE POP DUP2 PUSH1 0x80 ADD MLOAD PUSH1 0x8 DUP2 MLOAD DUP2 LT PUSH2 0xCEE JUMPI INVALID JUMPDEST PUSH1 0x20 MUL PUSH1 0x20 ADD ADD DUP2 SWAP1 MSTORE POP PUSH1 0x40 MLOAD DUP1 PUSH1 0x40 ADD PUSH1 0x40 MSTORE DUP1 PUSH32 0x1882ACB884BCB2466334B89566221B277A8D2B9EDC791514066EAF92F7958004 DUP2 MSTORE PUSH1 0x20 ADD PUSH32 0x162F1230E3DF87FF2AF7812C9CB14148F56333276C19D8D4A2AD4F336A4ADA5F DUP2 MSTORE POP DUP2 PUSH1 0x80 ADD MLOAD PUSH1 0x9 DUP2 MLOAD DUP2 LT PUSH2 0xD5F JUMPI INVALID JUMPDEST PUSH1 0x20 MUL PUSH1 0x20 ADD ADD DUP2 SWAP1 MSTORE POP PUSH1 0x40 MLOAD DUP1 PUSH1 0x40 ADD PUSH1 0x40 MSTORE DUP1 PUSH32 0x1683932DE356F4385CEDAE14B9101515F63E88D6FE1D46BA840156D0472284B1 DUP2 MSTORE PUSH1 0x20 ADD PUSH32 0xB27A32BD8CA8320AF08A562BA2A3F4501E30769FAD79667BFAD246C7EE898D9 DUP2 MSTORE POP DUP2 PUSH1 0x80 ADD MLOAD PUSH1 0xA DUP2 MLOAD DUP2 LT PUSH2 0xDD0 JUMPI INVALID JUMPDEST PUSH1 0x20 MUL PUSH1 0x20 ADD ADD DUP2 SWAP1 MSTORE POP PUSH1 0x40 MLOAD DUP1 PUSH1 0x40 ADD PUSH1 0x40 MSTORE DUP1 PUSH32 0x213FC4FD6493B14BCC6BE2DBC14CBDC6445BC12CE4FFB8985CEEDED87C236CA1 DUP2 MSTORE PUSH1 0x20 ADD PUSH32 0x2952075DE526578F59DC20516A13198F63F650C8B94C934AC292848141E583F4 DUP2 MSTORE POP DUP2 PUSH1 0x80 ADD MLOAD PUSH1 0xB DUP2 MLOAD DUP2 LT PUSH2 0xE41 JUMPI INVALID JUMPDEST PUSH1 0x20 MUL PUSH1 0x20 ADD ADD DUP2 SWAP1 MSTORE POP PUSH1 0x40 MLOAD DUP1 PUSH1 0x40 ADD PUSH1 0x40 MSTORE DUP1 PUSH32 0x2B0CEB9131128612B8C9525DD83BB5EB1C6E0460EAD7961523CDB5C83F50738D DUP2 MSTORE PUSH1 0x20 ADD PUSH32 0x1969493139EFA4560AF5278F753D3C7EEE5EBD84157978308AFAD7CCF7286103 DUP2 MSTORE POP DUP2 PUSH1 0x80 ADD MLOAD PUSH1 0xC DUP2 MLOAD DUP2 LT PUSH2 0xEB2 JUMPI INVALID JUMPDEST PUSH1 0x20 MUL PUSH1 0x20 ADD ADD DUP2 SWAP1 MSTORE POP PUSH1 0x40 MLOAD DUP1 PUSH1 0x40 ADD PUSH1 0x40 MSTORE DUP1 PUSH32 0x2537299D8D2A089E1113D103295412A097AC641AF112F60B89BA3BB97D4F498F DUP2 MSTORE PUSH1 0x20 ADD PUSH32 0x1177ED1438132F564052B7D96BAEBCBA7AE1DEE4A3C3D24499A312C615F8792A DUP2 MSTORE POP DUP2 PUSH1 0x80 ADD MLOAD PUSH1 0xD DUP2 MLOAD DUP2 LT PUSH2 0xF23 JUMPI INVALID JUMPDEST PUSH1 0x20 MUL PUSH1 0x20 ADD ADD DUP2 SWAP1 MSTORE POP PUSH1 0x40 MLOAD DUP1 PUSH1 0x40 ADD PUSH1 0x40 MSTORE DUP1 PUSH32 0x1FD2268F99247081D19C0E440F247876B8512B777F4526D1E229020BBFF68A8C DUP2 MSTORE PUSH1 0x20 ADD PUSH32 0xFB9A69E86FB19F91E60FE5F95E5AEE7FB9118D254D445DC930FCE40FD27F508 DUP2 MSTORE POP DUP2 PUSH1 0x80 ADD MLOAD PUSH1 0xE DUP2 MLOAD DUP2 LT PUSH2 0xF94 JUMPI INVALID JUMPDEST PUSH1 0x20 MUL PUSH1 0x20 ADD ADD DUP2 SWAP1 MSTORE POP PUSH1 0x40 MLOAD DUP1 PUSH1 0x40 ADD PUSH1 0x40 MSTORE DUP1 PUSH32 0x2BC9B7C2AC3AC7F4A92823EB74FB822FA32839A7DB0557FC24B397F3D0769362 DUP2 MSTORE PUSH1 0x20 ADD PUSH32 0x13033F2FCC7B9CAB61886539819433F5597F7BF485484148AD75367DD4225977 DUP2 MSTORE POP DUP2 PUSH1 0x80 ADD MLOAD PUSH1 0xF DUP2 MLOAD DUP2 LT PUSH2 0x1005 JUMPI INVALID JUMPDEST PUSH1 0x20 MUL PUSH1 0x20 ADD ADD DUP2 SWAP1 MSTORE POP PUSH1 0x40 MLOAD DUP1 PUSH1 0x40 ADD PUSH1 0x40 MSTORE DUP1 PUSH32 0x29B74F25A5354C435364D43489A615D243FE71AFD577F40EBC4381FE0F1213C9 DUP2 MSTORE PUSH1 0x20 ADD PUSH32 0x16998299E9EA2A65A2942EAD92892B45EA0182F29910BE78A73D18DBFFC3D216 DUP2 MSTORE POP DUP2 PUSH1 0x80 ADD MLOAD PUSH1 0x10 DUP2 MLOAD DUP2 LT PUSH2 0x1076 JUMPI INVALID JUMPDEST PUSH1 0x20 MUL PUSH1 0x20 ADD ADD DUP2 SWAP1 MSTORE POP PUSH1 0x40 MLOAD DUP1 PUSH1 0x40 ADD PUSH1 0x40 MSTORE DUP1 PUSH32 0x11FD5495073517D2E92B6AADCAC9C12D3FE17A443642CA7C2EEF9D9CAFEEEB96 DUP2 MSTORE PUSH1 0x20 ADD PUSH32 0x8AE8E0E5F94003A2E269AB60B525FA97720EDC72316AEB2ACA63B92AB595EA1 DUP2 MSTORE POP DUP2 PUSH1 0x80 ADD MLOAD PUSH1 0x11 DUP2 MLOAD DUP2 LT PUSH2 0x10E7 JUMPI INVALID JUMPDEST PUSH1 0x20 MUL PUSH1 0x20 ADD ADD DUP2 SWAP1 MSTORE POP PUSH1 0x40 MLOAD DUP1 PUSH1 0x40 ADD PUSH1 0x40 MSTORE DUP1 PUSH32 0x1217339FE00D71DE0960CCDAAE6400BEBABF5B6FA53E6E40BB8761E4BDBF1B36 DUP2 MSTORE PUSH1 0x20 ADD PUSH32 0x1AEC57614D467600774FFDC2CF43DA940AF472365631D6E02500BA52D297A9F6 DUP2 MSTORE POP DUP2 PUSH1 0x80 ADD MLOAD PUSH1 0x12 DUP2 MLOAD DUP2 LT PUSH2 0x1158 JUMPI INVALID JUMPDEST PUSH1 0x20 MUL PUSH1 0x20 ADD ADD DUP2 SWAP1 MSTORE POP PUSH1 0x40 MLOAD DUP1 PUSH1 0x40 ADD PUSH1 0x40 MSTORE DUP1 PUSH31 0x1C770AE831F41FB7B3AB66AE7FE39E347F988E35A1FE55394B4208B6F1B354 DUP2 MSTORE PUSH1 0x20 ADD PUSH32 0x96D58951AE0874F1CAB71BC904CD64FB4D450A26E44189DF8E998149BBB4131 DUP2 MSTORE POP DUP2 PUSH1 0x80 ADD MLOAD PUSH1 0x13 DUP2 MLOAD DUP2 LT PUSH2 0x11C8 JUMPI INVALID JUMPDEST PUSH1 0x20 MUL PUSH1 0x20 ADD ADD DUP2 SWAP1 MSTORE POP PUSH1 0x40 MLOAD DUP1 PUSH1 0x40 ADD PUSH1 0x40 MSTORE DUP1 PUSH32 0xD4798E9F654BF0A80CE4B085D2B9F2BEA94D02B4A7ECB6E5607AA269B8692B5 DUP2 MSTORE PUSH1 0x20 ADD PUSH32 0x296EFDEE2F91B749BCF6672662C473DC79B33EE5A56932CFC06FD2E2E5F47E22 DUP2 MSTORE POP DUP2 PUSH1 0x80 ADD MLOAD PUSH1 0x14 DUP2 MLOAD DUP2 LT PUSH2 0x1239 JUMPI INVALID JUMPDEST PUSH1 0x20 MUL PUSH1 0x20 ADD ADD DUP2 SWAP1 MSTORE POP PUSH1 0x40 MLOAD DUP1 PUSH1 0x40 ADD PUSH1 0x40 MSTORE DUP1 PUSH32 0x16229A205E92FD338219AA32946F0B7DDF8AE804D236804FA301A030BA0FCD81 DUP2 MSTORE PUSH1 0x20 ADD PUSH32 0x14B4C8402C85D1E6C1A154AB52F102F587B875274264DC2376BA143013E43EDD DUP2 MSTORE POP DUP2 PUSH1 0x80 ADD MLOAD PUSH1 0x15 DUP2 MLOAD DUP2 LT PUSH2 0x12AA JUMPI INVALID JUMPDEST PUSH1 0x20 MUL PUSH1 0x20 ADD ADD DUP2 SWAP1 MSTORE POP PUSH1 0x40 MLOAD DUP1 PUSH1 0x40 ADD PUSH1 0x40 MSTORE DUP1 PUSH32 0x1D84F88F7963067C29980F16049705109446593CCF14901D4E23FB0F5C223754 DUP2 MSTORE PUSH1 0x20 ADD PUSH32 0x130F4729C9025384935516D0EA3FA18E7C332C7DA0F7470D83DB165F391AD547 DUP2 MSTORE POP DUP2 PUSH1 0x80 ADD MLOAD PUSH1 0x16 DUP2 MLOAD DUP2 LT PUSH2 0x131B JUMPI INVALID JUMPDEST PUSH1 0x20 MUL PUSH1 0x20 ADD ADD DUP2 SWAP1 MSTORE POP PUSH1 0x40 MLOAD DUP1 PUSH1 0x40 ADD PUSH1 0x40 MSTORE DUP1 PUSH32 0x2307BE3550F91C3CEBD1C682A4F9CBCBE2543892EB3D756431828752440921DC DUP2 MSTORE PUSH1 0x20 ADD PUSH32 0x12F6AB709DEA48DB3629E27059F04385352E0920D24F383C3EAD81ED2A7AEF2D DUP2 MSTORE POP DUP2 PUSH1 0x80 ADD MLOAD PUSH1 0x17 DUP2 MLOAD DUP2 LT PUSH2 0x138C JUMPI INVALID JUMPDEST PUSH1 0x20 MUL PUSH1 0x20 ADD ADD DUP2 SWAP1 MSTORE POP PUSH1 0x40 MLOAD DUP1 PUSH1 0x40 ADD PUSH1 0x40 MSTORE DUP1 PUSH32 0x28E3C4F6A6C2347DDD2B62946825E805D6C635F4A06B4D8317840D2FC49EB68C DUP2 MSTORE PUSH1 0x20 ADD PUSH32 0x1EB491543C6ABF11D8011677083075D6FA479D5EDD956DFD37B3D4F1507C8E54 DUP2 MSTORE POP DUP2 PUSH1 0x80 ADD MLOAD PUSH1 0x18 DUP2 MLOAD DUP2 LT PUSH2 0x13FD JUMPI INVALID JUMPDEST PUSH1 0x20 MUL PUSH1 0x20 ADD ADD DUP2 SWAP1 MSTORE POP PUSH1 0x40 MLOAD DUP1 PUSH1 0x40 ADD PUSH1 0x40 MSTORE DUP1 PUSH32 0xFE574F7B492D5FC37046530E0F791BC3A6F5308D712FA3A78A78AC8BE0D394C DUP2 MSTORE PUSH1 0x20 ADD PUSH32 0x1E7645EF126293D9A88C814570A39B6213AEA007B7AB319E700A500B47ED028E DUP2 MSTORE POP DUP2 PUSH1 0x80 ADD MLOAD PUSH1 0x19 DUP2 MLOAD DUP2 LT PUSH2 0x146E JUMPI INVALID JUMPDEST PUSH1 0x20 MUL PUSH1 0x20 ADD ADD DUP2 SWAP1 MSTORE POP PUSH1 0x40 MLOAD DUP1 PUSH1 0x40 ADD PUSH1 0x40 MSTORE DUP1 PUSH32 0x21716E7E42E082AD6B895CA6882AE8CD4087141E115552288F9FC3B2059EE2CF DUP2 MSTORE PUSH1 0x20 ADD PUSH32 0x20D2EE02899E4E20955758D59817240BF547B90C79DB0FEC6B65DDC0CC669D3B DUP2 MSTORE POP DUP2 PUSH1 0x80 ADD MLOAD PUSH1 0x1A DUP2 MLOAD DUP2 LT PUSH2 0x14DF JUMPI INVALID JUMPDEST PUSH1 0x20 MUL PUSH1 0x20 ADD ADD DUP2 SWAP1 MSTORE POP PUSH1 0x40 MLOAD DUP1 PUSH1 0x40 ADD PUSH1 0x40 MSTORE DUP1 PUSH32 0x1DD8DD5CE7E8B16C56683D038EDF1949AD7BFAF71F9826488330F8A57385BC13 DUP2 MSTORE PUSH1 0x20 ADD PUSH32 0x27603A6C6B021E408CEE81A78744AFDF19E56A2C8D20DAC15D03046D7B16EB04 DUP2 MSTORE POP DUP2 PUSH1 0x80 ADD MLOAD PUSH1 0x1B DUP2 MLOAD DUP2 LT PUSH2 0x1550 JUMPI INVALID JUMPDEST PUSH1 0x20 MUL PUSH1 0x20 ADD ADD DUP2 SWAP1 MSTORE POP PUSH1 0x40 MLOAD DUP1 PUSH1 0x40 ADD PUSH1 0x40 MSTORE DUP1 PUSH32 0x2BD4F8E78EDDEBE40620B711720ED102D95EFA251BBBF9B697C535575E67B485 DUP2 MSTORE PUSH1 0x20 ADD PUSH32 0xD99AA75F789B68D42051433E6BB0DF75A869CD2361916DBBDD81334CBC63DC8 DUP2 MSTORE POP DUP2 PUSH1 0x80 ADD MLOAD PUSH1 0x1C DUP2 MLOAD DUP2 LT PUSH2 0x15C1 JUMPI INVALID JUMPDEST PUSH1 0x20 MUL PUSH1 0x20 ADD ADD DUP2 SWAP1 MSTORE POP PUSH1 0x40 MLOAD DUP1 PUSH1 0x40 ADD PUSH1 0x40 MSTORE DUP1 PUSH32 0x299F2CE0746F9584527CC31251FB3660823F901164898144B95B82950496B5E4 DUP2 MSTORE PUSH1 0x20 ADD PUSH32 0xF7FE1B194459047A6177EE05CE42A004BA837EC0698122659BEF652B3C312FD DUP2 MSTORE POP DUP2 PUSH1 0x80 ADD MLOAD PUSH1 0x1D DUP2 MLOAD DUP2 LT PUSH2 0x1632 JUMPI INVALID JUMPDEST PUSH1 0x20 MUL PUSH1 0x20 ADD ADD DUP2 SWAP1 MSTORE POP PUSH1 0x40 MLOAD DUP1 PUSH1 0x40 ADD PUSH1 0x40 MSTORE DUP1 PUSH32 0xD4FC16A6AB261F96FDCB5559DEB3081CCD73E109960DC5DD867914D1EA783F1 DUP2 MSTORE PUSH1 0x20 ADD PUSH32 0x1C4AF9139E9A2A706D99880A5E687AA674802006B86A89FABA752043A517FAC5 DUP2 MSTORE POP DUP2 PUSH1 0x80 ADD MLOAD PUSH1 0x1E DUP2 MLOAD DUP2 LT PUSH2 0x16A3 JUMPI INVALID JUMPDEST PUSH1 0x20 MUL PUSH1 0x20 ADD ADD DUP2 SWAP1 MSTORE POP PUSH1 0x40 MLOAD DUP1 PUSH1 0x40 ADD PUSH1 0x40 MSTORE DUP1 PUSH32 0xA33E6058B524AC2586F0E90D85A9B3B661F6368EB643B6FD3A8499219D1247D DUP2 MSTORE PUSH1 0x20 ADD PUSH32 0x1A880C9AF38C992A6B5E473AF6F1E3BE0755543B5D4ED368103CD580CE671B3B DUP2 MSTORE POP DUP2 PUSH1 0x80 ADD MLOAD PUSH1 0x1F DUP2 MLOAD DUP2 LT PUSH2 0x1714 JUMPI INVALID JUMPDEST PUSH1 0x20 MUL PUSH1 0x20 ADD ADD DUP2 SWAP1 MSTORE POP PUSH1 0x40 MLOAD DUP1 PUSH1 0x40 ADD PUSH1 0x40 MSTORE DUP1 PUSH32 0x139D7DD893BB5099DF9A30B16FEFD371F87C61FEF379C50AAA92DD00C48C8DC6 DUP2 MSTORE PUSH1 0x20 ADD PUSH32 0x1DF4722411AAD187B07A8CFA881F2F3E9396CE01A4158B0198A6F1B941EE32B1 DUP2 MSTORE POP DUP2 PUSH1 0x80 ADD MLOAD PUSH1 0x20 DUP2 MLOAD DUP2 LT PUSH2 0x1785 JUMPI INVALID JUMPDEST PUSH1 0x20 MUL PUSH1 0x20 ADD ADD DUP2 SWAP1 MSTORE POP PUSH1 0x40 MLOAD DUP1 PUSH1 0x40 ADD PUSH1 0x40 MSTORE DUP1 PUSH32 0x1FE14B118754F5F4B3F449F2E0CB8D72F3E11B6B8A678EC58D599EF35452F385 DUP2 MSTORE PUSH1 0x20 ADD PUSH32 0x1D0A27500065DECD3902445D35B8E30D2B82A7B79541E19655CC838B3EB89792 DUP2 MSTORE POP DUP2 PUSH1 0x80 ADD MLOAD PUSH1 0x21 DUP2 MLOAD DUP2 LT PUSH2 0x17F6 JUMPI INVALID JUMPDEST PUSH1 0x20 MUL PUSH1 0x20 ADD ADD DUP2 SWAP1 MSTORE POP PUSH1 0x40 MLOAD DUP1 PUSH1 0x40 ADD PUSH1 0x40 MSTORE DUP1 PUSH32 0x2A67DC5964EC9AABF4FDE7182AD8D88CDAE4C77B3532D5128C41DA25D88AC2BF DUP2 MSTORE PUSH1 0x20 ADD PUSH32 0x1011B0FD3684909614469B549526EAC4B84FE421C09F8E0CD8601CC533B44B3B DUP2 MSTORE POP DUP2 PUSH1 0x80 ADD MLOAD PUSH1 0x22 DUP2 MLOAD DUP2 LT PUSH2 0x1867 JUMPI INVALID JUMPDEST PUSH1 0x20 MUL PUSH1 0x20 ADD ADD DUP2 SWAP1 MSTORE POP PUSH1 0x40 MLOAD DUP1 PUSH1 0x40 ADD PUSH1 0x40 MSTORE DUP1 PUSH32 0x5F7F62CE7DDEE01F64995CF97290C2DC0D2DCDFC274E810531CED79663DAD3F DUP2 MSTORE PUSH1 0x20 ADD PUSH32 0x2B6DE63917FEBC41BBB42952695298CFE5485C2F88615BA05B3588987BF45D14 DUP2 MSTORE POP DUP2 PUSH1 0x80 ADD MLOAD PUSH1 0x23 DUP2 MLOAD DUP2 LT PUSH2 0x18D8 JUMPI INVALID JUMPDEST PUSH1 0x20 MUL PUSH1 0x20 ADD ADD DUP2 SWAP1 MSTORE POP PUSH1 0x40 MLOAD DUP1 PUSH1 0x40 ADD PUSH1 0x40 MSTORE DUP1 PUSH32 0x1E9BB84BB3832DF47A1410E3096A4A827298E07F04C334D474A432479939135C DUP2 MSTORE PUSH1 0x20 ADD PUSH32 0x147E1BB19675425A93FEE7C6DAF18477CF04AF477C95B3B558F131417808E49A DUP2 MSTORE POP DUP2 PUSH1 0x80 ADD MLOAD PUSH1 0x24 DUP2 MLOAD DUP2 LT PUSH2 0x1949 JUMPI INVALID JUMPDEST PUSH1 0x20 MUL PUSH1 0x20 ADD ADD DUP2 SWAP1 MSTORE POP PUSH1 0x40 MLOAD DUP1 PUSH1 0x40 ADD PUSH1 0x40 MSTORE DUP1 PUSH32 0xBC863967E3021C49DB56B4AF06B3F19A1A74203B5FEEEEFD4B9988543DABDD5 DUP2 MSTORE PUSH1 0x20 ADD PUSH32 0x1333C76CF7625E334CC16D9791EBE268DC39D1AF2A1E8284753196B00CD1C798 DUP2 MSTORE POP DUP2 PUSH1 0x80 ADD MLOAD PUSH1 0x25 DUP2 MLOAD DUP2 LT PUSH2 0x19BA JUMPI INVALID JUMPDEST PUSH1 0x20 MUL PUSH1 0x20 ADD ADD DUP2 SWAP1 MSTORE POP PUSH1 0x40 MLOAD DUP1 PUSH1 0x40 ADD PUSH1 0x40 MSTORE DUP1 PUSH32 0x2F4B6A86D8FF5AE8E587C20129FC2A6C26B5E524801BAC22346D4D227E96C69F DUP2 MSTORE PUSH1 0x20 ADD PUSH32 0x7BDF52BB7B3E2C362937D0F6F38E5AFDBFA2D6A9460C29FC1142CC48845F816 DUP2 MSTORE POP DUP2 PUSH1 0x80 ADD MLOAD PUSH1 0x26 DUP2 MLOAD DUP2 LT PUSH2 0x1A2B JUMPI INVALID JUMPDEST PUSH1 0x20 MUL PUSH1 0x20 ADD ADD DUP2 SWAP1 MSTORE POP PUSH1 0x40 MLOAD DUP1 PUSH1 0x40 ADD PUSH1 0x40 MSTORE DUP1 PUSH32 0x1086CE091C04B2FF67999E9C02C6C24A0D2C7EB932F9B0A9398FC8B3803CF852 DUP2 MSTORE PUSH1 0x20 ADD PUSH32 0x29AA00D99F341A453B1C2D090EC2C610B21450398E22C6989D45EEA5FB2E96A0 DUP2 MSTORE POP DUP2 PUSH1 0x80 ADD MLOAD PUSH1 0x27 DUP2 MLOAD DUP2 LT PUSH2 0x1A9C JUMPI INVALID JUMPDEST PUSH1 0x20 MUL PUSH1 0x20 ADD ADD DUP2 SWAP1 MSTORE POP PUSH1 0x40 MLOAD DUP1 PUSH1 0x40 ADD PUSH1 0x40 MSTORE DUP1 PUSH32 0x796DCE1E8B281504C33C68D0D4C5E25CCBA200FB10254BCCCC62E0082E643CB DUP2 MSTORE PUSH1 0x20 ADD PUSH32 0x2FC82FC1C16D6B0C0D6A89309F7C8FC235D9BB30D95004984BECAAECC6ECC051 DUP2 MSTORE POP DUP2 PUSH1 0x80 ADD MLOAD PUSH1 0x28 DUP2 MLOAD DUP2 LT PUSH2 0x1B0D JUMPI INVALID JUMPDEST PUSH1 0x20 MUL PUSH1 0x20 ADD ADD DUP2 SWAP1 MSTORE POP PUSH1 0x40 MLOAD DUP1 PUSH1 0x40 ADD PUSH1 0x40 MSTORE DUP1 PUSH32 0x2E687A274BEFDC602E515F0A9382721854CAC55F4B371F1E5E430E0A5663E11B DUP2 MSTORE PUSH1 0x20 ADD PUSH32 0xB0200A30E4137B049489D22B8DD7DAC67A322FA30B519B403CA5111AD23E42D DUP2 MSTORE POP DUP2 PUSH1 0x80 ADD MLOAD PUSH1 0x29 DUP2 MLOAD DUP2 LT PUSH2 0x1B7E JUMPI INVALID JUMPDEST PUSH1 0x20 MUL PUSH1 0x20 ADD ADD DUP2 SWAP1 MSTORE POP PUSH1 0x40 MLOAD DUP1 PUSH1 0x40 ADD PUSH1 0x40 MSTORE DUP1 PUSH32 0xFFD4242CD0D81CFE13D31EE0009E1629DFC3DDE314CAEFB4AB1D07387AC36C7 DUP2 MSTORE PUSH1 0x20 ADD PUSH32 0x21B33281BFEA4A628D33DF4DC0783AE9606B53448FCDB26E8BE83B8797FAD179 DUP2 MSTORE POP DUP2 PUSH1 0x80 ADD MLOAD PUSH1 0x2A DUP2 MLOAD DUP2 LT PUSH2 0x1BEF JUMPI INVALID JUMPDEST PUSH1 0x20 MUL PUSH1 0x20 ADD ADD DUP2 SWAP1 MSTORE POP PUSH1 0x40 MLOAD DUP1 PUSH1 0x40 ADD PUSH1 0x40 MSTORE DUP1 PUSH32 0x7C03C4720BB99ACE3A321A045A0707E3F17BAAB2292CA1D6E18A3DFC0EB7288 DUP2 MSTORE PUSH1 0x20 ADD PUSH32 0x141572F32C5A03ACEC243140F3922CBBB24B72E66B70F6882C6A566630B1D820 DUP2 MSTORE POP DUP2 PUSH1 0x80 ADD MLOAD PUSH1 0x2B DUP2 MLOAD DUP2 LT PUSH2 0x1C60 JUMPI INVALID JUMPDEST PUSH1 0x20 MUL PUSH1 0x20 ADD ADD DUP2 SWAP1 MSTORE POP PUSH1 0x40 MLOAD DUP1 PUSH1 0x40 ADD PUSH1 0x40 MSTORE DUP1 PUSH32 0x2560991A40BC0F6A0EC2AEC5D7D63B0B15D844F8CCEBB34EDB27F77E94B9323E DUP2 MSTORE PUSH1 0x20 ADD PUSH32 0x12F00E2FDA5CDA942D56D20A05E9145F09C7FB1AE8D47D8B16B9A23D4ABE7136 DUP2 MSTORE POP DUP2 PUSH1 0x80 ADD MLOAD PUSH1 0x2C DUP2 MLOAD DUP2 LT PUSH2 0x1CD1 JUMPI INVALID JUMPDEST PUSH1 0x20 MUL PUSH1 0x20 ADD ADD DUP2 SWAP1 MSTORE POP PUSH1 0x40 MLOAD DUP1 PUSH1 0x40 ADD PUSH1 0x40 MSTORE DUP1 PUSH32 0x1D0047B9281AA7727E8ACA9249C41428F64F2105462C70AB1F918D464C7FF2C0 DUP2 MSTORE PUSH1 0x20 ADD PUSH32 0x1E6A70DDEA6F0FA78E48A960783DEB131D3A0D8176D8710A0F8A78DD38391956 DUP2 MSTORE POP DUP2 PUSH1 0x80 ADD MLOAD PUSH1 0x2D DUP2 MLOAD DUP2 LT PUSH2 0x1D42 JUMPI INVALID JUMPDEST PUSH1 0x20 MUL PUSH1 0x20 ADD ADD DUP2 SWAP1 MSTORE POP PUSH1 0x40 MLOAD DUP1 PUSH1 0x40 ADD PUSH1 0x40 MSTORE DUP1 PUSH32 0x1426258650D2D8C6BD671D1052B2FBB5C1E363E4B98426048EC480204157944F DUP2 MSTORE PUSH1 0x20 ADD PUSH32 0x2F746561C2F1A98903E3C55205134CF32E6BCFB588BBECF56E9BB6EB37BF2765 DUP2 MSTORE POP DUP2 PUSH1 0x80 ADD MLOAD PUSH1 0x2E DUP2 MLOAD DUP2 LT PUSH2 0x1DB3 JUMPI INVALID JUMPDEST PUSH1 0x20 MUL PUSH1 0x20 ADD ADD DUP2 SWAP1 MSTORE POP PUSH1 0x40 MLOAD DUP1 PUSH1 0x40 ADD PUSH1 0x40 MSTORE DUP1 PUSH32 0x222FE54CD16D153ECD1D529258DD5B1956BD40B5B92697C3E62BA3672F2815B0 DUP2 MSTORE PUSH1 0x20 ADD PUSH32 0x1006BC61A27D9433771D6EEA61F34C7D6E6B96D2F321CC3B41123EB378E08056 DUP2 MSTORE POP DUP2 PUSH1 0x80 ADD MLOAD PUSH1 0x2F DUP2 MLOAD DUP2 LT PUSH2 0x1E24 JUMPI INVALID JUMPDEST PUSH1 0x20 MUL PUSH1 0x20 ADD ADD DUP2 SWAP1 MSTORE POP PUSH1 0x40 MLOAD DUP1 PUSH1 0x40 ADD PUSH1 0x40 MSTORE DUP1 PUSH32 0x291277771E85D53CE048D90AAD5566BADB2A3FEF0848EEDCFF3C225FD1471807 DUP2 MSTORE PUSH1 0x20 ADD PUSH32 0x164D0F210F05D714411711A11CD75DDBC5120814E9EF56E4A46E44B1C98549C2 DUP2 MSTORE POP DUP2 PUSH1 0x80 ADD MLOAD PUSH1 0x30 DUP2 MLOAD DUP2 LT PUSH2 0x1E95 JUMPI INVALID JUMPDEST PUSH1 0x20 MUL PUSH1 0x20 ADD ADD DUP2 SWAP1 MSTORE POP PUSH1 0x40 MLOAD DUP1 PUSH1 0x40 ADD PUSH1 0x40 MSTORE DUP1 PUSH32 0x2B5D90427309B60A937AE7937651D3232A9E468220189C853B37C0CF23F0C256 DUP2 MSTORE PUSH1 0x20 ADD PUSH32 0x832AB3EA05724EFF4D513C1F187334C5A8206F8210F0C5D77196EB10400364C DUP2 MSTORE POP DUP2 PUSH1 0x80 ADD MLOAD PUSH1 0x31 DUP2 MLOAD DUP2 LT PUSH2 0x1F06 JUMPI INVALID JUMPDEST PUSH1 0x20 MUL PUSH1 0x20 ADD ADD DUP2 SWAP1 MSTORE POP PUSH1 0x40 MLOAD DUP1 PUSH1 0x40 ADD PUSH1 0x40 MSTORE DUP1 PUSH32 0xFCDB7B9AD679DC340E9F2EC62617AC02DCB6E7B6895B0495375035697B3860F DUP2 MSTORE PUSH1 0x20 ADD PUSH32 0x2176C450D63CBD084E6C74B2F72F39793BCD5CF6E4D426CE86F3F1AD36F5123A DUP2 MSTORE POP DUP2 PUSH1 0x80 ADD MLOAD PUSH1 0x32 DUP2 MLOAD DUP2 LT PUSH2 0x1F77 JUMPI INVALID JUMPDEST PUSH1 0x20 MUL PUSH1 0x20 ADD ADD DUP2 SWAP1 MSTORE POP PUSH1 0x40 MLOAD DUP1 PUSH1 0x40 ADD PUSH1 0x40 MSTORE DUP1 PUSH32 0x1F84D66EF0C01FAAB404C7756D9D7612A92AD25D8CA9D110739B5AE3E04EA47B DUP2 MSTORE PUSH1 0x20 ADD PUSH32 0xD01A2A734E78C9C22BB170BB7C0AE58401472A2F1352C07853EECEEF80C5C5B DUP2 MSTORE POP DUP2 PUSH1 0x80 ADD MLOAD PUSH1 0x33 DUP2 MLOAD DUP2 LT PUSH2 0x1FE8 JUMPI INVALID JUMPDEST PUSH1 0x20 MUL PUSH1 0x20 ADD ADD DUP2 SWAP1 MSTORE POP PUSH1 0x40 MLOAD DUP1 PUSH1 0x40 ADD PUSH1 0x40 MSTORE DUP1 PUSH32 0x1AB874AC83556E33371E04682AE1AE44BCB628A78EDDBB4FA1AB7FD22D13AD5A DUP2 MSTORE PUSH1 0x20 ADD PUSH32 0x78C0CCCDB78CF4F16415F2AE339B9A4AD2FBE5D7B906B3829ACD15D54A255B5 DUP2 MSTORE POP DUP2 PUSH1 0x80 ADD MLOAD PUSH1 0x34 DUP2 MLOAD DUP2 LT PUSH2 0x2059 JUMPI INVALID JUMPDEST PUSH1 0x20 MUL PUSH1 0x20 ADD ADD DUP2 SWAP1 MSTORE POP PUSH1 0x40 MLOAD DUP1 PUSH1 0x40 ADD PUSH1 0x40 MSTORE DUP1 PUSH32 0x3025CD56E134D50CC3F33E74FDBECABBB4E64D6C4B8A6ABA88D47DBA54098AB5 DUP2 MSTORE PUSH1 0x20 ADD PUSH32 0x17BD4F353B90EB10F5EC01F0551FAD031124733D89D8B1D2954C76ECFC7BED74 DUP2 MSTORE POP DUP2 PUSH1 0x80 ADD MLOAD PUSH1 0x35 DUP2 MLOAD DUP2 LT PUSH2 0x20CA JUMPI INVALID JUMPDEST PUSH1 0x20 MUL PUSH1 0x20 ADD ADD DUP2 SWAP1 MSTORE POP PUSH1 0x40 MLOAD DUP1 PUSH1 0x40 ADD PUSH1 0x40 MSTORE DUP1 PUSH32 0xDEF9754093A3F4E320D7227C9AA44734EBBF086978056789EBD1C865961984C DUP2 MSTORE PUSH1 0x20 ADD PUSH32 0x19AEDA6C28C6CF3AC901F430B1926B0E6731AB9290033751B7A9BBB43B88EAE DUP2 MSTORE POP DUP2 PUSH1 0x80 ADD MLOAD PUSH1 0x36 DUP2 MLOAD DUP2 LT PUSH2 0x213B JUMPI INVALID JUMPDEST PUSH1 0x20 MUL PUSH1 0x20 ADD ADD DUP2 SWAP1 MSTORE POP PUSH1 0x40 MLOAD DUP1 PUSH1 0x40 ADD PUSH1 0x40 MSTORE DUP1 PUSH32 0xE976FEE8B8F017F0A677C1C6C9A2D22B85CD18F43E460FAC9BF348526DF5D13 DUP2 MSTORE PUSH1 0x20 ADD PUSH32 0x2A3E9AE6FCE25B2CCEF9E4DCD4E0FB1C7D7AD4F1A26767D9E984C01D32D32F80 DUP2 MSTORE POP DUP2 PUSH1 0x80 ADD MLOAD PUSH1 0x37 DUP2 MLOAD DUP2 LT PUSH2 0x21AC JUMPI INVALID JUMPDEST PUSH1 0x20 MUL PUSH1 0x20 ADD ADD DUP2 SWAP1 MSTORE POP PUSH1 0x40 MLOAD DUP1 PUSH1 0x40 ADD PUSH1 0x40 MSTORE DUP1 PUSH32 0xF8C47C668B59841BB4DD4B734D506ADC1F91007F18EBD9916B0CA8CE1E411FD DUP2 MSTORE PUSH1 0x20 ADD PUSH32 0x1C306BF0382BD19655EC7DCFC89E9174CC8D559B81B034A53DD9FE6050BC0EE4 DUP2 MSTORE POP DUP2 PUSH1 0x80 ADD MLOAD PUSH1 0x38 DUP2 MLOAD DUP2 LT PUSH2 0x221D JUMPI INVALID JUMPDEST PUSH1 0x20 MUL PUSH1 0x20 ADD ADD DUP2 SWAP1 MSTORE POP PUSH1 0x40 MLOAD DUP1 PUSH1 0x40 ADD PUSH1 0x40 MSTORE DUP1 PUSH32 0xD9C7D01F04DBC8C329FE5DD28D067D812832765E0FD5D8BD585DB8E05F548B7 DUP2 MSTORE PUSH1 0x20 ADD PUSH32 0x17582BCD99D9FEFC11B82C75EC7DAB6EF8ECE65C420AACC4DC929538702032AA DUP2 MSTORE POP DUP2 PUSH1 0x80 ADD MLOAD PUSH1 0x39 DUP2 MLOAD DUP2 LT PUSH2 0x228E JUMPI INVALID JUMPDEST PUSH1 0x20 MUL PUSH1 0x20 ADD ADD DUP2 SWAP1 MSTORE POP PUSH1 0x40 MLOAD DUP1 PUSH1 0x40 ADD PUSH1 0x40 MSTORE DUP1 PUSH32 0x71A484AAA84C549BECFDADED3A504DC22557A89464E35F0EF458E0FFD18D872 DUP2 MSTORE PUSH1 0x20 ADD PUSH32 0x11557CE10EF18CED29D8C171F5E9B62EEE1EB6757A766AD40E433F9F95DE962A DUP2 MSTORE POP DUP2 PUSH1 0x80 ADD MLOAD PUSH1 0x3A DUP2 MLOAD DUP2 LT PUSH2 0x22FF JUMPI INVALID JUMPDEST PUSH1 0x20 MUL PUSH1 0x20 ADD ADD DUP2 SWAP1 MSTORE POP PUSH1 0x40 MLOAD DUP1 PUSH1 0x40 ADD PUSH1 0x40 MSTORE DUP1 PUSH32 0x12BA8A421DE09B289ACFDCAC1485280B22B7B5A6F69887EE148A9A6464A54DD0 DUP2 MSTORE PUSH1 0x20 ADD PUSH32 0x1E448904D23B796C1BC8537BEA99F3934362D2BCA08E1FE172C3200BB1251DD4 DUP2 MSTORE POP DUP2 PUSH1 0x80 ADD MLOAD PUSH1 0x3B DUP2 MLOAD DUP2 LT PUSH2 0x2370 JUMPI INVALID JUMPDEST PUSH1 0x20 MUL PUSH1 0x20 ADD ADD DUP2 SWAP1 MSTORE POP PUSH1 0x40 MLOAD DUP1 PUSH1 0x40 ADD PUSH1 0x40 MSTORE DUP1 PUSH32 0x2031174785CCDE348782B5E8D5A8266868317DD5F87C616C6251266568C1BC93 DUP2 MSTORE PUSH1 0x20 ADD PUSH32 0x2984EC6800A49FEE2ADF8E76BF946F2D1262037EC093655ED9D5233EF0322AFF DUP2 MSTORE POP DUP2 PUSH1 0x80 ADD MLOAD PUSH1 0x3C DUP2 MLOAD DUP2 LT PUSH2 0x23E1 JUMPI INVALID JUMPDEST PUSH1 0x20 MUL PUSH1 0x20 ADD ADD DUP2 SWAP1 MSTORE POP PUSH1 0x40 MLOAD DUP1 PUSH1 0x40 ADD PUSH1 0x40 MSTORE DUP1 PUSH32 0xAC81966FE042B1BD5D4B61A49A4D05DE9B4D22D35E9B88B008B36BBC6A4115F DUP2 MSTORE PUSH1 0x20 ADD PUSH32 0x4A18370FEB03730437DD37EE0332E0355805928116F179F8C958B744509570B DUP2 MSTORE POP DUP2 PUSH1 0x80 ADD MLOAD PUSH1 0x3D DUP2 MLOAD DUP2 LT PUSH2 0x2452 JUMPI INVALID JUMPDEST PUSH1 0x20 MUL PUSH1 0x20 ADD ADD DUP2 SWAP1 MSTORE POP PUSH1 0x40 MLOAD DUP1 PUSH1 0x40 ADD PUSH1 0x40 MSTORE DUP1 PUSH32 0xCCC9CAE9D8E802371D5C699922E4DCEA8E1B66527FAC4B99F3D4460928C9509 DUP2 MSTORE PUSH1 0x20 ADD PUSH32 0x35E43A36EF54B18B6AD1BC2E61CD12B1CE8391DA6FA4659E6E09A6AC47220D2 DUP2 MSTORE POP DUP2 PUSH1 0x80 ADD MLOAD PUSH1 0x3E DUP2 MLOAD DUP2 LT PUSH2 0x24C3 JUMPI INVALID JUMPDEST PUSH1 0x20 MUL PUSH1 0x20 ADD ADD DUP2 SWAP1 MSTORE POP PUSH1 0x40 MLOAD DUP1 PUSH1 0x40 ADD PUSH1 0x40 MSTORE DUP1 PUSH32 0x3C6C1687AE1FFF60F9720043262F1E24ED8030D9B73975881934338123C98CC DUP2 MSTORE PUSH1 0x20 ADD PUSH32 0x9D02AEF3F578D66FEAA3837D99A7E8BC544BE0130F286B41A6710787D56B557 DUP2 MSTORE POP DUP2 PUSH1 0x80 ADD MLOAD PUSH1 0x3F DUP2 MLOAD DUP2 LT PUSH2 0x2534 JUMPI INVALID JUMPDEST PUSH1 0x20 MUL PUSH1 0x20 ADD ADD DUP2 SWAP1 MSTORE POP PUSH1 0x40 MLOAD DUP1 PUSH1 0x40 ADD PUSH1 0x40 MSTORE DUP1 PUSH32 0x1F5F7A8C435EB950A3B53AEF8C9AF3D71C2180A709FC22ACD8BFA0EBA6E634AC DUP2 MSTORE PUSH1 0x20 ADD PUSH31 0x864B5AE7610AB202765C0A7F1259F5D5475F1BD10EF06CA818D71D0083B7DC DUP2 MSTORE POP DUP2 PUSH1 0x80 ADD MLOAD PUSH1 0x40 DUP2 MLOAD DUP2 LT PUSH2 0x25A4 JUMPI INVALID JUMPDEST PUSH1 0x20 MUL PUSH1 0x20 ADD ADD DUP2 SWAP1 MSTORE POP PUSH1 0x40 MLOAD DUP1 PUSH1 0x40 ADD PUSH1 0x40 MSTORE DUP1 PUSH32 0x2E0562C3F916C73AEFE0211B28D8B8665A5CB3BC5031DA8223D2410FF72AEBEC DUP2 MSTORE PUSH1 0x20 ADD PUSH32 0x1EC9BB4A7DB294647A96EC3E6030F360DBB7762FE8315332606404774B36A4CE DUP2 MSTORE POP DUP2 PUSH1 0x80 ADD MLOAD PUSH1 0x41 DUP2 MLOAD DUP2 LT PUSH2 0x2615 JUMPI INVALID JUMPDEST PUSH1 0x20 MUL PUSH1 0x20 ADD ADD DUP2 SWAP1 MSTORE POP PUSH1 0x40 MLOAD DUP1 PUSH1 0x40 ADD PUSH1 0x40 MSTORE DUP1 PUSH32 0x807ECA40866A691330A0F6B200D673DF414CEF7B564AC72332BD5CD1A5AC07C DUP2 MSTORE PUSH1 0x20 ADD PUSH32 0x1B2D15B3AE3A38E5FD1A1AEF7F648113CCEA4E3D47E2F316DCF0EF923F7512C1 DUP2 MSTORE POP DUP2 PUSH1 0x80 ADD MLOAD PUSH1 0x42 DUP2 MLOAD DUP2 LT PUSH2 0x2686 JUMPI INVALID JUMPDEST PUSH1 0x20 MUL PUSH1 0x20 ADD ADD DUP2 SWAP1 MSTORE POP PUSH1 0x40 MLOAD DUP1 PUSH1 0x40 ADD PUSH1 0x40 MSTORE DUP1 PUSH32 0x1BE9165F0E5D0884BB989CD783FC5BDCF3742B80FCF5E96916D883672DE87A19 DUP2 MSTORE PUSH1 0x20 ADD PUSH32 0x1C7EE044A31C1992BC67190087281F3760D2E918E139171DFC64B0E37065256B DUP2 MSTORE POP DUP2 PUSH1 0x80 ADD MLOAD PUSH1 0x43 DUP2 MLOAD DUP2 LT PUSH2 0x26F7 JUMPI INVALID JUMPDEST PUSH1 0x20 MUL PUSH1 0x20 ADD ADD DUP2 SWAP1 MSTORE POP PUSH1 0x40 MLOAD DUP1 PUSH1 0x40 ADD PUSH1 0x40 MSTORE DUP1 PUSH32 0x11202210F955518767A35E709B9D077BC709ADC8F74DFC71C15630F0A534F328 DUP2 MSTORE PUSH1 0x20 ADD PUSH32 0x3C7470CFCB54896A6A58CDA25536B4994CBBF0027F04106BE6FE9A97817B44B DUP2 MSTORE POP DUP2 PUSH1 0x80 ADD MLOAD PUSH1 0x44 DUP2 MLOAD DUP2 LT PUSH2 0x2768 JUMPI INVALID JUMPDEST PUSH1 0x20 MUL PUSH1 0x20 ADD ADD DUP2 SWAP1 MSTORE POP SWAP1 JUMP JUMPDEST PUSH2 0x277E PUSH2 0x2F6D JUMP JUMPDEST PUSH2 0x2786 PUSH2 0x2F87 JUMP JUMPDEST DUP4 PUSH1 0x0 ADD MLOAD DUP2 PUSH1 0x0 PUSH1 0x3 DUP2 LT PUSH2 0x2798 JUMPI INVALID JUMPDEST PUSH1 0x20 MUL ADD DUP2 DUP2 MSTORE POP POP DUP4 PUSH1 0x20 ADD MLOAD DUP2 PUSH1 0x1 PUSH1 0x3 DUP2 LT PUSH2 0x27B3 JUMPI INVALID JUMPDEST PUSH1 0x20 MUL ADD DUP2 DUP2 MSTORE POP POP DUP3 DUP2 PUSH1 0x2 PUSH1 0x3 DUP2 LT PUSH2 0x27CA JUMPI INVALID JUMPDEST PUSH1 0x20 MUL ADD DUP2 DUP2 MSTORE POP POP PUSH1 0x0 PUSH1 0x60 DUP4 PUSH1 0x80 DUP5 PUSH1 0x7 PUSH2 0x7D0 GAS SUB STATICCALL SWAP1 POP DUP1 PUSH1 0x0 DUP2 EQ PUSH2 0x27F3 JUMPI PUSH2 0x27F5 JUMP JUMPDEST INVALID JUMPDEST POP DUP1 PUSH2 0x2869 JUMPI PUSH1 0x40 MLOAD PUSH32 0x8C379A000000000000000000000000000000000000000000000000000000000 DUP2 MSTORE PUSH1 0x4 ADD DUP1 DUP1 PUSH1 0x20 ADD DUP3 DUP2 SUB DUP3 MSTORE PUSH1 0x12 DUP2 MSTORE PUSH1 0x20 ADD DUP1 PUSH32 0x70616972696E672D6D756C2D6661696C65640000000000000000000000000000 DUP2 MSTORE POP PUSH1 0x20 ADD SWAP2 POP POP PUSH1 0x40 MLOAD DUP1 SWAP2 SUB SWAP1 REVERT JUMPDEST POP POP SWAP3 SWAP2 POP POP JUMP JUMPDEST PUSH2 0x2879 PUSH2 0x2F6D JUMP JUMPDEST PUSH2 0x2881 PUSH2 0x2FA9 JUMP JUMPDEST DUP4 PUSH1 0x0 ADD MLOAD DUP2 PUSH1 0x0 PUSH1 0x4 DUP2 LT PUSH2 0x2893 JUMPI INVALID JUMPDEST PUSH1 0x20 MUL ADD DUP2 DUP2 MSTORE POP POP DUP4 PUSH1 0x20 ADD MLOAD DUP2 PUSH1 0x1 PUSH1 0x4 DUP2 LT PUSH2 0x28AE JUMPI INVALID JUMPDEST PUSH1 0x20 MUL ADD DUP2 DUP2 MSTORE POP POP DUP3 PUSH1 0x0 ADD MLOAD DUP2 PUSH1 0x2 PUSH1 0x4 DUP2 LT PUSH2 0x28C9 JUMPI INVALID JUMPDEST PUSH1 0x20 MUL ADD DUP2 DUP2 MSTORE POP POP DUP3 PUSH1 0x20 ADD MLOAD DUP2 PUSH1 0x3 PUSH1 0x4 DUP2 LT PUSH2 0x28E4 JUMPI INVALID JUMPDEST PUSH1 0x20 MUL ADD DUP2 DUP2 MSTORE POP POP PUSH1 0x0 PUSH1 0x60 DUP4 PUSH1 0xC0 DUP5 PUSH1 0x6 PUSH2 0x7D0 GAS SUB STATICCALL SWAP1 POP DUP1 PUSH1 0x0 DUP2 EQ PUSH2 0x290D JUMPI PUSH2 0x290F JUMP JUMPDEST INVALID JUMPDEST POP DUP1 PUSH2 0x2983 JUMPI PUSH1 0x40 MLOAD PUSH32 0x8C379A000000000000000000000000000000000000000000000000000000000 DUP2 MSTORE PUSH1 0x4 ADD DUP1 DUP1 PUSH1 0x20 ADD DUP3 DUP2 SUB DUP3 MSTORE PUSH1 0x12 DUP2 MSTORE PUSH1 0x20 ADD DUP1 PUSH32 0x70616972696E672D6164642D6661696C65640000000000000000000000000000 DUP2 MSTORE POP PUSH1 0x20 ADD SWAP2 POP POP PUSH1 0x40 MLOAD DUP1 SWAP2 SUB SWAP1 REVERT JUMPDEST POP POP SWAP3 SWAP2 POP POP JUMP JUMPDEST PUSH2 0x2993 PUSH2 0x2F6D JUMP JUMPDEST PUSH1 0x0 PUSH32 0x30644E72E131A029B85045B68181585D97816A916871CA8D3C208C16D87CFD47 SWAP1 POP PUSH1 0x0 DUP4 PUSH1 0x0 ADD MLOAD EQ DUP1 ISZERO PUSH2 0x29D0 JUMPI POP PUSH1 0x0 DUP4 PUSH1 0x20 ADD MLOAD EQ JUMPDEST ISZERO PUSH2 0x29F4 JUMPI PUSH1 0x40 MLOAD DUP1 PUSH1 0x40 ADD PUSH1 0x40 MSTORE DUP1 PUSH1 0x0 DUP2 MSTORE PUSH1 0x20 ADD PUSH1 0x0 DUP2 MSTORE POP SWAP2 POP POP PUSH2 0x2A20 JUMP JUMPDEST PUSH1 0x40 MLOAD DUP1 PUSH1 0x40 ADD PUSH1 0x40 MSTORE DUP1 DUP5 PUSH1 0x0 ADD MLOAD DUP2 MSTORE PUSH1 0x20 ADD DUP3 DUP6 PUSH1 0x20 ADD MLOAD DUP2 PUSH2 0x2A16 JUMPI INVALID JUMPDEST MOD DUP4 SUB DUP2 MSTORE POP SWAP2 POP POP JUMPDEST SWAP2 SWAP1 POP JUMP JUMPDEST PUSH1 0x0 PUSH1 0x60 PUSH1 0x4 PUSH8 0xFFFFFFFFFFFFFFFF DUP2 GT DUP1 ISZERO PUSH2 0x2A41 JUMPI PUSH1 0x0 DUP1 REVERT JUMPDEST POP PUSH1 0x40 MLOAD SWAP1 DUP1 DUP3 MSTORE DUP1 PUSH1 0x20 MUL PUSH1 0x20 ADD DUP3 ADD PUSH1 0x40 MSTORE DUP1 ISZERO PUSH2 0x2A7B JUMPI DUP2 PUSH1 0x20 ADD JUMPDEST PUSH2 0x2A68 PUSH2 0x2F6D JUMP JUMPDEST DUP2 MSTORE PUSH1 0x20 ADD SWAP1 PUSH1 0x1 SWAP1 SUB SWAP1 DUP2 PUSH2 0x2A60 JUMPI SWAP1 POP JUMPDEST POP SWAP1 POP PUSH1 0x60 PUSH1 0x4 PUSH8 0xFFFFFFFFFFFFFFFF DUP2 GT DUP1 ISZERO PUSH2 0x2A98 JUMPI PUSH1 0x0 DUP1 REVERT JUMPDEST POP PUSH1 0x40 MLOAD SWAP1 DUP1 DUP3 MSTORE DUP1 PUSH1 0x20 MUL PUSH1 0x20 ADD DUP3 ADD PUSH1 0x40 MSTORE DUP1 ISZERO PUSH2 0x2AD2 JUMPI DUP2 PUSH1 0x20 ADD JUMPDEST PUSH2 0x2ABF PUSH2 0x2FCB JUMP JUMPDEST DUP2 MSTORE PUSH1 0x20 ADD SWAP1 PUSH1 0x1 SWAP1 SUB SWAP1 DUP2 PUSH2 0x2AB7 JUMPI SWAP1 POP JUMPDEST POP SWAP1 POP DUP11 DUP3 PUSH1 0x0 DUP2 MLOAD DUP2 LT PUSH2 0x2AE3 JUMPI INVALID JUMPDEST PUSH1 0x20 MUL PUSH1 0x20 ADD ADD DUP2 SWAP1 MSTORE POP DUP9 DUP3 PUSH1 0x1 DUP2 MLOAD DUP2 LT PUSH2 0x2AFC JUMPI INVALID JUMPDEST PUSH1 0x20 MUL PUSH1 0x20 ADD ADD DUP2 SWAP1 MSTORE POP DUP7 DUP3 PUSH1 0x2 DUP2 MLOAD DUP2 LT PUSH2 0x2B15 JUMPI INVALID JUMPDEST PUSH1 0x20 MUL PUSH1 0x20 ADD ADD DUP2 SWAP1 MSTORE POP DUP5 DUP3 PUSH1 0x3 DUP2 MLOAD DUP2 LT PUSH2 0x2B2E JUMPI INVALID JUMPDEST PUSH1 0x20 MUL PUSH1 0x20 ADD ADD DUP2 SWAP1 MSTORE POP DUP10 DUP2 PUSH1 0x0 DUP2 MLOAD DUP2 LT PUSH2 0x2B47 JUMPI INVALID JUMPDEST PUSH1 0x20 MUL PUSH1 0x20 ADD ADD DUP2 SWAP1 MSTORE POP DUP8 DUP2 PUSH1 0x1 DUP2 MLOAD DUP2 LT PUSH2 0x2B60 JUMPI INVALID JUMPDEST PUSH1 0x20 MUL PUSH1 0x20 ADD ADD DUP2 SWAP1 MSTORE POP DUP6 DUP2 PUSH1 0x2 DUP2 MLOAD DUP2 LT PUSH2 0x2B79 JUMPI INVALID JUMPDEST PUSH1 0x20 MUL PUSH1 0x20 ADD ADD DUP2 SWAP1 MSTORE POP DUP4 DUP2 PUSH1 0x3 DUP2 MLOAD DUP2 LT PUSH2 0x2B92 JUMPI INVALID JUMPDEST PUSH1 0x20 MUL PUSH1 0x20 ADD ADD DUP2 SWAP1 MSTORE POP PUSH2 0x2BA7 DUP3 DUP3 PUSH2 0x2BB7 JUMP JUMPDEST SWAP3 POP POP POP SWAP9 SWAP8 POP POP POP POP POP POP POP POP JUMP JUMPDEST PUSH1 0x0 DUP2 MLOAD DUP4 MLOAD EQ PUSH2 0x2C30 JUMPI PUSH1 0x40 MLOAD PUSH32 0x8C379A000000000000000000000000000000000000000000000000000000000 DUP2 MSTORE PUSH1 0x4 ADD DUP1 DUP1 PUSH1 0x20 ADD DUP3 DUP2 SUB DUP3 MSTORE PUSH1 0x16 DUP2 MSTORE PUSH1 0x20 ADD DUP1 PUSH32 0x70616972696E672D6C656E677468732D6661696C656400000000000000000000 DUP2 MSTORE POP PUSH1 0x20 ADD SWAP2 POP POP PUSH1 0x40 MLOAD DUP1 SWAP2 SUB SWAP1 REVERT JUMPDEST PUSH1 0x0 DUP4 MLOAD SWAP1 POP PUSH1 0x0 PUSH1 0x6 DUP3 MUL SWAP1 POP PUSH1 0x60 DUP2 PUSH8 0xFFFFFFFFFFFFFFFF DUP2 GT DUP1 ISZERO PUSH2 0x2C57 JUMPI PUSH1 0x0 DUP1 REVERT JUMPDEST POP PUSH1 0x40 MLOAD SWAP1 DUP1 DUP3 MSTORE DUP1 PUSH1 0x20 MUL PUSH1 0x20 ADD DUP3 ADD PUSH1 0x40 MSTORE DUP1 ISZERO PUSH2 0x2C86 JUMPI DUP2 PUSH1 0x20 ADD PUSH1 0x20 DUP3 MUL DUP1 CALLDATASIZE DUP4 CALLDATACOPY DUP1 DUP3 ADD SWAP2 POP POP SWAP1 POP JUMPDEST POP SWAP1 POP PUSH1 0x0 DUP1 SWAP1 POP JUMPDEST DUP4 DUP2 LT ISZERO PUSH2 0x2E2C JUMPI DUP7 DUP2 DUP2 MLOAD DUP2 LT PUSH2 0x2CA3 JUMPI INVALID JUMPDEST PUSH1 0x20 MUL PUSH1 0x20 ADD ADD MLOAD PUSH1 0x0 ADD MLOAD DUP3 PUSH1 0x0 PUSH1 0x6 DUP5 MUL ADD DUP2 MLOAD DUP2 LT PUSH2 0x2CC1 JUMPI INVALID JUMPDEST PUSH1 0x20 MUL PUSH1 0x20 ADD ADD DUP2 DUP2 MSTORE POP POP DUP7 DUP2 DUP2 MLOAD DUP2 LT PUSH2 0x2CD9 JUMPI INVALID JUMPDEST PUSH1 0x20 MUL PUSH1 0x20 ADD ADD MLOAD PUSH1 0x20 ADD MLOAD DUP3 PUSH1 0x1 PUSH1 0x6 DUP5 MUL ADD DUP2 MLOAD DUP2 LT PUSH2 0x2CF7 JUMPI INVALID JUMPDEST PUSH1 0x20 MUL PUSH1 0x20 ADD ADD DUP2 DUP2 MSTORE POP POP DUP6 DUP2 DUP2 MLOAD DUP2 LT PUSH2 0x2D0F JUMPI INVALID JUMPDEST PUSH1 0x20 MUL PUSH1 0x20 ADD ADD MLOAD PUSH1 0x0 ADD MLOAD PUSH1 0x0 PUSH1 0x2 DUP2 LT PUSH2 0x2D27 JUMPI INVALID JUMPDEST PUSH1 0x20 MUL ADD MLOAD DUP3 PUSH1 0x2 PUSH1 0x6 DUP5 MUL ADD DUP2 MLOAD DUP2 LT PUSH2 0x2D3E JUMPI INVALID JUMPDEST PUSH1 0x20 MUL PUSH1 0x20 ADD ADD DUP2 DUP2 MSTORE POP POP DUP6 DUP2 DUP2 MLOAD DUP2 LT PUSH2 0x2D56 JUMPI INVALID JUMPDEST PUSH1 0x20 MUL PUSH1 0x20 ADD ADD MLOAD PUSH1 0x0 ADD MLOAD PUSH1 0x1 PUSH1 0x2 DUP2 LT PUSH2 0x2D6E JUMPI INVALID JUMPDEST PUSH1 0x20 MUL ADD MLOAD DUP3 PUSH1 0x3 PUSH1 0x6 DUP5 MUL ADD DUP2 MLOAD DUP2 LT PUSH2 0x2D85 JUMPI INVALID JUMPDEST PUSH1 0x20 MUL PUSH1 0x20 ADD ADD DUP2 DUP2 MSTORE POP POP DUP6 DUP2 DUP2 MLOAD DUP2 LT PUSH2 0x2D9D JUMPI INVALID JUMPDEST PUSH1 0x20 MUL PUSH1 0x20 ADD ADD MLOAD PUSH1 0x20 ADD MLOAD PUSH1 0x0 PUSH1 0x2 DUP2 LT PUSH2 0x2DB5 JUMPI INVALID JUMPDEST PUSH1 0x20 MUL ADD MLOAD DUP3 PUSH1 0x4 PUSH1 0x6 DUP5 MUL ADD DUP2 MLOAD DUP2 LT PUSH2 0x2DCC JUMPI INVALID JUMPDEST PUSH1 0x20 MUL PUSH1 0x20 ADD ADD DUP2 DUP2 MSTORE POP POP DUP6 DUP2 DUP2 MLOAD DUP2 LT PUSH2 0x2DE4 JUMPI INVALID JUMPDEST PUSH1 0x20 MUL PUSH1 0x20 ADD ADD MLOAD PUSH1 0x20 ADD MLOAD PUSH1 0x1 PUSH1 0x2 DUP2 LT PUSH2 0x2DFC JUMPI INVALID JUMPDEST PUSH1 0x20 MUL ADD MLOAD DUP3 PUSH1 0x5 PUSH1 0x6 DUP5 MUL ADD DUP2 MLOAD DUP2 LT PUSH2 0x2E13 JUMPI INVALID JUMPDEST PUSH1 0x20 MUL PUSH1 0x20 ADD ADD DUP2 DUP2 MSTORE POP POP DUP1 DUP1 PUSH1 0x1 ADD SWAP2 POP POP PUSH2 0x2C8F JUMP JUMPDEST POP PUSH2 0x2E35 PUSH2 0x2FF1 JUMP JUMPDEST PUSH1 0x0 PUSH1 0x20 DUP3 PUSH1 0x20 DUP7 MUL PUSH1 0x20 DUP7 ADD PUSH1 0x8 PUSH2 0x7D0 GAS SUB STATICCALL SWAP1 POP DUP1 PUSH1 0x0 DUP2 EQ PUSH2 0x2E5A JUMPI PUSH2 0x2E5C JUMP JUMPDEST INVALID JUMPDEST POP DUP1 PUSH2 0x2ED0 JUMPI PUSH1 0x40 MLOAD PUSH32 0x8C379A000000000000000000000000000000000000000000000000000000000 DUP2 MSTORE PUSH1 0x4 ADD DUP1 DUP1 PUSH1 0x20 ADD DUP3 DUP2 SUB DUP3 MSTORE PUSH1 0x15 DUP2 MSTORE PUSH1 0x20 ADD DUP1 PUSH32 0x70616972696E672D6F70636F64652D6661696C65640000000000000000000000 DUP2 MSTORE POP PUSH1 0x20 ADD SWAP2 POP POP PUSH1 0x40 MLOAD DUP1 SWAP2 SUB SWAP1 REVERT JUMPDEST PUSH1 0x0 DUP3 PUSH1 0x0 PUSH1 0x1 DUP2 LT PUSH2 0x2EDF JUMPI INVALID JUMPDEST PUSH1 0x20 MUL ADD MLOAD EQ ISZERO SWAP6 POP POP POP POP POP POP SWAP3 SWAP2 POP POP JUMP JUMPDEST PUSH1 0x40 MLOAD DUP1 PUSH1 0x60 ADD PUSH1 0x40 MSTORE DUP1 PUSH2 0x2F06 PUSH2 0x2F6D JUMP JUMPDEST DUP2 MSTORE PUSH1 0x20 ADD PUSH2 0x2F13 PUSH2 0x2FCB JUMP JUMPDEST DUP2 MSTORE PUSH1 0x20 ADD PUSH2 0x2F20 PUSH2 0x2F6D JUMP JUMPDEST DUP2 MSTORE POP SWAP1 JUMP JUMPDEST PUSH1 0x40 MLOAD DUP1 PUSH1 0xA0 ADD PUSH1 0x40 MSTORE DUP1 PUSH2 0x2F39 PUSH2 0x2F6D JUMP JUMPDEST DUP2 MSTORE PUSH1 0x20 ADD PUSH2 0x2F46 PUSH2 0x2FCB JUMP JUMPDEST DUP2 MSTORE PUSH1 0x20 ADD PUSH2 0x2F53 PUSH2 0x2FCB JUMP JUMPDEST DUP2 MSTORE PUSH1 0x20 ADD PUSH2 0x2F60 PUSH2 0x2FCB JUMP JUMPDEST DUP2 MSTORE PUSH1 0x20 ADD PUSH1 0x60 DUP2 MSTORE POP SWAP1 JUMP JUMPDEST PUSH1 0x40 MLOAD DUP1 PUSH1 0x40 ADD PUSH1 0x40 MSTORE DUP1 PUSH1 0x0 DUP2 MSTORE PUSH1 0x20 ADD PUSH1 0x0 DUP2 MSTORE POP SWAP1 JUMP JUMPDEST PUSH1 0x40 MLOAD DUP1 PUSH1 0x60 ADD PUSH1 0x40 MSTORE DUP1 PUSH1 0x3 SWAP1 PUSH1 0x20 DUP3 MUL DUP1 CALLDATASIZE DUP4 CALLDATACOPY DUP1 DUP3 ADD SWAP2 POP POP SWAP1 POP POP SWAP1 JUMP JUMPDEST PUSH1 0x40 MLOAD DUP1 PUSH1 0x80 ADD PUSH1 0x40 MSTORE DUP1 PUSH1 0x4 SWAP1 PUSH1 0x20 DUP3 MUL DUP1 CALLDATASIZE DUP4 CALLDATACOPY DUP1 DUP3 ADD SWAP2 POP POP SWAP1 POP POP SWAP1 JUMP JUMPDEST PUSH1 0x40 MLOAD DUP1 PUSH1 0x40 ADD PUSH1 0x40 MSTORE DUP1 PUSH2 0x2FDE PUSH2 0x3013 JUMP JUMPDEST DUP2 MSTORE PUSH1 0x20 ADD PUSH2 0x2FEB PUSH2 0x3013 JUMP JUMPDEST DUP2 MSTORE POP SWAP1 JUMP JUMPDEST PUSH1 0x40 MLOAD DUP1 PUSH1 0x20 ADD PUSH1 0x40 MSTORE DUP1 PUSH1 0x1 SWAP1 PUSH1 0x20 DUP3 MUL DUP1 CALLDATASIZE DUP4 CALLDATACOPY DUP1 DUP3 ADD SWAP2 POP POP SWAP1 POP POP SWAP1 JUMP JUMPDEST PUSH1 0x40 MLOAD DUP1 PUSH1 0x40 ADD PUSH1 0x40 MSTORE DUP1 PUSH1 0x2 SWAP1 PUSH1 0x20 DUP3 MUL DUP1 CALLDATASIZE DUP4 CALLDATACOPY DUP1 DUP3 ADD SWAP2 POP POP SWAP1 POP POP SWAP1 JUMP INVALID LOG2 PUSH5 0x6970667358 0x22 SLT KECCAK256 MOD 0x4C SWAP3 PUSH31 0xE8EA5816893BE46FF7499AA13B3985F2CD468C6F368904AC064FBFF564736F PUSH13 0x634300060B0033000000000000 "},"methodIdentifiers":{"verifyProof(uint256[2],uint256[2][2],uint256[2],uint256[68])":"3420a296"}}}}}